{
  "contracts/SimpleSubscription.sol": {
    "AdvancedSubscription": {
      "abi": [
        {
          "inputs": [
            {
              "internalType": "address",
              "name": "_usdtToken",
              "type": "address"
            }
          ],
          "stateMutability": "nonpayable",
          "type": "constructor"
        },
        {
          "anonymous": false,
          "inputs": [
            {
              "indexed": true,
              "internalType": "address",
              "name": "user",
              "type": "address"
            },
            {
              "indexed": true,
              "internalType": "uint256",
              "name": "planId",
              "type": "uint256"
            }
          ],
          "name": "AutoRenewalDisabled",
          "type": "event"
        },
        {
          "anonymous": false,
          "inputs": [
            {
              "indexed": true,
              "internalType": "address",
              "name": "user",
              "type": "address"
            },
            {
              "indexed": true,
              "internalType": "uint256",
              "name": "planId",
              "type": "uint256"
            },
            {
              "indexed": false,
              "internalType": "enum AdvancedSubscription.PaymentMethod",
              "name": "method",
              "type": "uint8"
            }
          ],
          "name": "AutoRenewalEnabled",
          "type": "event"
        },
        {
          "anonymous": false,
          "inputs": [
            {
              "indexed": true,
              "internalType": "address",
              "name": "user",
              "type": "address"
            },
            {
              "indexed": true,
              "internalType": "uint256",
              "name": "planId",
              "type": "uint256"
            },
            {
              "indexed": false,
              "internalType": "string",
              "name": "reason",
              "type": "string"
            }
          ],
          "name": "AutoRenewalFailed",
          "type": "event"
        },
        {
          "anonymous": false,
          "inputs": [
            {
              "indexed": true,
              "internalType": "address",
              "name": "user",
              "type": "address"
            },
            {
              "indexed": true,
              "internalType": "uint256",
              "name": "planId",
              "type": "uint256"
            },
            {
              "indexed": false,
              "internalType": "enum AdvancedSubscription.PaymentMethod",
              "name": "method",
              "type": "uint8"
            }
          ],
          "name": "AutoRenewalProcessed",
          "type": "event"
        },
        {
          "anonymous": false,
          "inputs": [
            {
              "indexed": true,
              "internalType": "address",
              "name": "user",
              "type": "address"
            },
            {
              "indexed": false,
              "internalType": "uint256",
              "name": "amount",
              "type": "uint256"
            }
          ],
          "name": "ETHDeposited",
          "type": "event"
        },
        {
          "anonymous": false,
          "inputs": [
            {
              "indexed": true,
              "internalType": "address",
              "name": "user",
              "type": "address"
            },
            {
              "indexed": false,
              "internalType": "uint256",
              "name": "amount",
              "type": "uint256"
            }
          ],
          "name": "ETHWithdrawn",
          "type": "event"
        },
        {
          "anonymous": false,
          "inputs": [
            {
              "indexed": true,
              "internalType": "address",
              "name": "user",
              "type": "address"
            },
            {
              "indexed": true,
              "internalType": "uint256",
              "name": "planId",
              "type": "uint256"
            },
            {
              "indexed": false,
              "internalType": "uint256",
              "name": "expiresAt",
              "type": "uint256"
            },
            {
              "indexed": false,
              "internalType": "uint256",
              "name": "daysLeft",
              "type": "uint256"
            }
          ],
          "name": "ExpirationWarning",
          "type": "event"
        },
        {
          "anonymous": false,
          "inputs": [
            {
              "indexed": true,
              "internalType": "uint256",
              "name": "planId",
              "type": "uint256"
            },
            {
              "indexed": false,
              "internalType": "string",
              "name": "name",
              "type": "string"
            },
            {
              "indexed": false,
              "internalType": "uint256",
              "name": "ethPrice",
              "type": "uint256"
            },
            {
              "indexed": false,
              "internalType": "uint256",
              "name": "usdtPrice",
              "type": "uint256"
            },
            {
              "indexed": false,
              "internalType": "uint256",
              "name": "interval",
              "type": "uint256"
            }
          ],
          "name": "PlanCreated",
          "type": "event"
        },
        {
          "anonymous": false,
          "inputs": [
            {
              "indexed": true,
              "internalType": "address",
              "name": "user",
              "type": "address"
            },
            {
              "indexed": true,
              "internalType": "uint256",
              "name": "planId",
              "type": "uint256"
            },
            {
              "indexed": false,
              "internalType": "uint256",
              "name": "deadline",
              "type": "uint256"
            }
          ],
          "name": "RenewalNeeded",
          "type": "event"
        },
        {
          "anonymous": false,
          "inputs": [
            {
              "indexed": true,
              "internalType": "address",
              "name": "user",
              "type": "address"
            },
            {
              "indexed": true,
              "internalType": "uint256",
              "name": "planId",
              "type": "uint256"
            },
            {
              "indexed": false,
              "internalType": "uint256",
              "name": "expiresAt",
              "type": "uint256"
            },
            {
              "indexed": false,
              "internalType": "enum AdvancedSubscription.PaymentMethod",
              "name": "method",
              "type": "uint8"
            },
            {
              "indexed": false,
              "internalType": "bool",
              "name": "autoRenewal",
              "type": "bool"
            }
          ],
          "name": "Renewed",
          "type": "event"
        },
        {
          "anonymous": false,
          "inputs": [
            {
              "indexed": true,
              "internalType": "address",
              "name": "user",
              "type": "address"
            },
            {
              "indexed": true,
              "internalType": "uint256",
              "name": "planId",
              "type": "uint256"
            },
            {
              "indexed": false,
              "internalType": "uint256",
              "name": "expiresAt",
              "type": "uint256"
            },
            {
              "indexed": false,
              "internalType": "enum AdvancedSubscription.PaymentMethod",
              "name": "method",
              "type": "uint8"
            }
          ],
          "name": "Subscribed",
          "type": "event"
        },
        {
          "anonymous": false,
          "inputs": [
            {
              "indexed": true,
              "internalType": "address",
              "name": "user",
              "type": "address"
            },
            {
              "indexed": true,
              "internalType": "uint256",
              "name": "planId",
              "type": "uint256"
            },
            {
              "indexed": false,
              "internalType": "uint256",
              "name": "expiredAt",
              "type": "uint256"
            }
          ],
          "name": "SubscriptionExpired",
          "type": "event"
        },
        {
          "anonymous": false,
          "inputs": [
            {
              "indexed": true,
              "internalType": "address",
              "name": "user",
              "type": "address"
            },
            {
              "indexed": true,
              "internalType": "uint256",
              "name": "planId",
              "type": "uint256"
            }
          ],
          "name": "Unsubscribed",
          "type": "event"
        },
        {
          "inputs": [
            {
              "internalType": "address[]",
              "name": "users",
              "type": "address[]"
            },
            {
              "internalType": "uint256[]",
              "name": "planIds",
              "type": "uint256[]"
            }
          ],
          "name": "checkExpirationWarnings",
          "outputs": [],
          "stateMutability": "nonpayable",
          "type": "function"
        },
        {
          "inputs": [
            {
              "internalType": "address",
              "name": "user",
              "type": "address"
            },
            {
              "internalType": "uint256",
              "name": "planId",
              "type": "uint256"
            }
          ],
          "name": "checkSubscriptionStatus",
          "outputs": [],
          "stateMutability": "nonpayable",
          "type": "function"
        },
        {
          "inputs": [
            {
              "internalType": "string",
              "name": "name",
              "type": "string"
            },
            {
              "internalType": "uint256",
              "name": "ethPrice",
              "type": "uint256"
            },
            {
              "internalType": "uint256",
              "name": "usdtPrice",
              "type": "uint256"
            },
            {
              "internalType": "uint256",
              "name": "intervalDays",
              "type": "uint256"
            }
          ],
          "name": "createPlan",
          "outputs": [],
          "stateMutability": "nonpayable",
          "type": "function"
        },
        {
          "inputs": [],
          "name": "depositETH",
          "outputs": [],
          "stateMutability": "payable",
          "type": "function"
        },
        {
          "inputs": [
            {
              "internalType": "uint256",
              "name": "planId",
              "type": "uint256"
            }
          ],
          "name": "disableAutoRenewal",
          "outputs": [],
          "stateMutability": "nonpayable",
          "type": "function"
        },
        {
          "inputs": [
            {
              "internalType": "uint256",
              "name": "planId",
              "type": "uint256"
            },
            {
              "internalType": "enum AdvancedSubscription.PaymentMethod",
              "name": "method",
              "type": "uint8"
            }
          ],
          "name": "enableAutoRenewal",
          "outputs": [],
          "stateMutability": "nonpayable",
          "type": "function"
        },
        {
          "inputs": [
            {
              "internalType": "address",
              "name": "",
              "type": "address"
            }
          ],
          "name": "ethBalances",
          "outputs": [
            {
              "internalType": "uint256",
              "name": "",
              "type": "uint256"
            }
          ],
          "stateMutability": "view",
          "type": "function"
        },
        {
          "inputs": [
            {
              "internalType": "address",
              "name": "user",
              "type": "address"
            },
            {
              "internalType": "uint256",
              "name": "planId",
              "type": "uint256"
            },
            {
              "components": [
                {
                  "internalType": "uint256",
                  "name": "ethPrice",
                  "type": "uint256"
                },
                {
                  "internalType": "uint256",
                  "name": "usdtPrice",
                  "type": "uint256"
                },
                {
                  "internalType": "uint256",
                  "name": "interval",
                  "type": "uint256"
                },
                {
                  "internalType": "string",
                  "name": "name",
                  "type": "string"
                },
                {
                  "internalType": "bool",
                  "name": "active",
                  "type": "bool"
                }
              ],
              "internalType": "struct AdvancedSubscription.Plan",
              "name": "plan",
              "type": "tuple"
            },
            {
              "internalType": "enum AdvancedSubscription.PaymentMethod",
              "name": "method",
              "type": "uint8"
            }
          ],
          "name": "executeAutoRenewal",
          "outputs": [],
          "stateMutability": "nonpayable",
          "type": "function"
        },
        {
          "inputs": [
            {
              "internalType": "string",
              "name": "name",
              "type": "string"
            }
          ],
          "name": "findPlanByName",
          "outputs": [
            {
              "internalType": "uint256",
              "name": "",
              "type": "uint256"
            }
          ],
          "stateMutability": "view",
          "type": "function"
        },
        {
          "inputs": [],
          "name": "getActivePlans",
          "outputs": [
            {
              "internalType": "uint256[]",
              "name": "",
              "type": "uint256[]"
            }
          ],
          "stateMutability": "view",
          "type": "function"
        },
        {
          "inputs": [],
          "name": "getETHBalance",
          "outputs": [
            {
              "internalType": "uint256",
              "name": "",
              "type": "uint256"
            }
          ],
          "stateMutability": "view",
          "type": "function"
        },
        {
          "inputs": [
            {
              "internalType": "uint256",
              "name": "planId",
              "type": "uint256"
            }
          ],
          "name": "getPlan",
          "outputs": [
            {
              "components": [
                {
                  "internalType": "uint256",
                  "name": "ethPrice",
                  "type": "uint256"
                },
                {
                  "internalType": "uint256",
                  "name": "usdtPrice",
                  "type": "uint256"
                },
                {
                  "internalType": "uint256",
                  "name": "interval",
                  "type": "uint256"
                },
                {
                  "internalType": "string",
                  "name": "name",
                  "type": "string"
                },
                {
                  "internalType": "bool",
                  "name": "active",
                  "type": "bool"
                }
              ],
              "internalType": "struct AdvancedSubscription.Plan",
              "name": "",
              "type": "tuple"
            }
          ],
          "stateMutability": "view",
          "type": "function"
        },
        {
          "inputs": [
            {
              "internalType": "address",
              "name": "user",
              "type": "address"
            },
            {
              "internalType": "uint256",
              "name": "planId",
              "type": "uint256"
            }
          ],
          "name": "getSubscription",
          "outputs": [
            {
              "internalType": "uint256",
              "name": "expiresAt",
              "type": "uint256"
            },
            {
              "internalType": "uint256",
              "name": "totalPaidETH",
              "type": "uint256"
            },
            {
              "internalType": "uint256",
              "name": "totalPaidUSDT",
              "type": "uint256"
            },
            {
              "internalType": "bool",
              "name": "active",
              "type": "bool"
            },
            {
              "internalType": "bool",
              "name": "autoRenewEnabled",
              "type": "bool"
            },
            {
              "internalType": "enum AdvancedSubscription.PaymentMethod",
              "name": "preferredMethod",
              "type": "uint8"
            }
          ],
          "stateMutability": "view",
          "type": "function"
        },
        {
          "inputs": [],
          "name": "getUSDTBalance",
          "outputs": [
            {
              "internalType": "uint256",
              "name": "",
              "type": "uint256"
            }
          ],
          "stateMutability": "view",
          "type": "function"
        },
        {
          "inputs": [
            {
              "internalType": "address[]",
              "name": "users",
              "type": "address[]"
            },
            {
              "internalType": "uint256[]",
              "name": "planIds",
              "type": "uint256[]"
            }
          ],
          "name": "getUsersNeedingRenewal",
          "outputs": [
            {
              "internalType": "address[]",
              "name": "",
              "type": "address[]"
            },
            {
              "internalType": "uint256[]",
              "name": "",
              "type": "uint256[]"
            }
          ],
          "stateMutability": "view",
          "type": "function"
        },
        {
          "inputs": [
            {
              "internalType": "address",
              "name": "user",
              "type": "address"
            },
            {
              "internalType": "uint256",
              "name": "planId",
              "type": "uint256"
            }
          ],
          "name": "isActive",
          "outputs": [
            {
              "internalType": "bool",
              "name": "",
              "type": "bool"
            }
          ],
          "stateMutability": "view",
          "type": "function"
        },
        {
          "inputs": [],
          "name": "notificationWindow",
          "outputs": [
            {
              "internalType": "uint256",
              "name": "",
              "type": "uint256"
            }
          ],
          "stateMutability": "view",
          "type": "function"
        },
        {
          "inputs": [],
          "name": "owner",
          "outputs": [
            {
              "internalType": "address",
              "name": "",
              "type": "address"
            }
          ],
          "stateMutability": "view",
          "type": "function"
        },
        {
          "inputs": [],
          "name": "planCounter",
          "outputs": [
            {
              "internalType": "uint256",
              "name": "",
              "type": "uint256"
            }
          ],
          "stateMutability": "view",
          "type": "function"
        },
        {
          "inputs": [
            {
              "internalType": "uint256",
              "name": "",
              "type": "uint256"
            }
          ],
          "name": "plans",
          "outputs": [
            {
              "internalType": "uint256",
              "name": "ethPrice",
              "type": "uint256"
            },
            {
              "internalType": "uint256",
              "name": "usdtPrice",
              "type": "uint256"
            },
            {
              "internalType": "uint256",
              "name": "interval",
              "type": "uint256"
            },
            {
              "internalType": "string",
              "name": "name",
              "type": "string"
            },
            {
              "internalType": "bool",
              "name": "active",
              "type": "bool"
            }
          ],
          "stateMutability": "view",
          "type": "function"
        },
        {
          "inputs": [
            {
              "internalType": "address",
              "name": "user",
              "type": "address"
            },
            {
              "internalType": "uint256",
              "name": "planId",
              "type": "uint256"
            }
          ],
          "name": "processAutoRenewal",
          "outputs": [],
          "stateMutability": "nonpayable",
          "type": "function"
        },
        {
          "inputs": [
            {
              "internalType": "uint256",
              "name": "planId",
              "type": "uint256"
            }
          ],
          "name": "renewWithETH",
          "outputs": [],
          "stateMutability": "payable",
          "type": "function"
        },
        {
          "inputs": [
            {
              "internalType": "uint256",
              "name": "planId",
              "type": "uint256"
            }
          ],
          "name": "renewWithUSDT",
          "outputs": [],
          "stateMutability": "nonpayable",
          "type": "function"
        },
        {
          "inputs": [
            {
              "internalType": "uint256",
              "name": "_notificationWindow",
              "type": "uint256"
            }
          ],
          "name": "setNotificationWindow",
          "outputs": [],
          "stateMutability": "nonpayable",
          "type": "function"
        },
        {
          "inputs": [
            {
              "internalType": "uint256",
              "name": "planId",
              "type": "uint256"
            }
          ],
          "name": "subscribeWithETH",
          "outputs": [],
          "stateMutability": "payable",
          "type": "function"
        },
        {
          "inputs": [
            {
              "internalType": "uint256",
              "name": "planId",
              "type": "uint256"
            }
          ],
          "name": "subscribeWithUSDT",
          "outputs": [],
          "stateMutability": "nonpayable",
          "type": "function"
        },
        {
          "inputs": [
            {
              "internalType": "address",
              "name": "",
              "type": "address"
            },
            {
              "internalType": "uint256",
              "name": "",
              "type": "uint256"
            }
          ],
          "name": "subscriptions",
          "outputs": [
            {
              "internalType": "uint256",
              "name": "expiresAt",
              "type": "uint256"
            },
            {
              "internalType": "uint256",
              "name": "totalPaidETH",
              "type": "uint256"
            },
            {
              "internalType": "uint256",
              "name": "totalPaidUSDT",
              "type": "uint256"
            },
            {
              "internalType": "bool",
              "name": "autoRenewEnabled",
              "type": "bool"
            },
            {
              "internalType": "enum AdvancedSubscription.PaymentMethod",
              "name": "preferredMethod",
              "type": "uint8"
            },
            {
              "internalType": "uint256",
              "name": "notificationSent",
              "type": "uint256"
            }
          ],
          "stateMutability": "view",
          "type": "function"
        },
        {
          "inputs": [
            {
              "internalType": "uint256",
              "name": "planId",
              "type": "uint256"
            }
          ],
          "name": "togglePlan",
          "outputs": [],
          "stateMutability": "nonpayable",
          "type": "function"
        },
        {
          "inputs": [
            {
              "internalType": "uint256",
              "name": "planId",
              "type": "uint256"
            }
          ],
          "name": "unsubscribe",
          "outputs": [],
          "stateMutability": "nonpayable",
          "type": "function"
        },
        {
          "inputs": [
            {
              "internalType": "address",
              "name": "newUSDTToken",
              "type": "address"
            }
          ],
          "name": "updateUSDTToken",
          "outputs": [],
          "stateMutability": "nonpayable",
          "type": "function"
        },
        {
          "inputs": [],
          "name": "usdtToken",
          "outputs": [
            {
              "internalType": "contract IERC20",
              "name": "",
              "type": "address"
            }
          ],
          "stateMutability": "view",
          "type": "function"
        },
        {
          "inputs": [],
          "name": "withdrawETH",
          "outputs": [],
          "stateMutability": "nonpayable",
          "type": "function"
        },
        {
          "inputs": [
            {
              "internalType": "uint256",
              "name": "amount",
              "type": "uint256"
            }
          ],
          "name": "withdrawETHBalance",
          "outputs": [],
          "stateMutability": "nonpayable",
          "type": "function"
        },
        {
          "inputs": [],
          "name": "withdrawUSDT",
          "outputs": [],
          "stateMutability": "nonpayable",
          "type": "function"
        }
      ],
      "evm": {
        "bytecode": {
          "linkReferences": {},
          "object": "60803461008157601f612a6838819003918201601f19168301916001600160401b038311848410176100865780849260209460405283398101031261008157516001600160a01b03811690819003610081576203f48060035560018060a01b03193381600054161760005560025416176002556040516129cb908161009d8239f35b600080fd5b634e487b7160e01b600052604160045260246000fdfe608080604052600436101561001357600080fd5b600090813560e01c908163176c510614611fef5750806326cd527414611f3e578063296362fe14611ed45780632bf8335c14611eb6578063362e496b14611d3f5780633ae9a18e14611c205780633cfba0e314611be757806343fe832c14611b36578063498556ed14611821578063623da3d1146117975780636e9472981461177b578063839171361461173757806386ed56fa146116de5780638a0323ba146113d35780638da5cb5b146113ac578063921121621461124a5780639785fac8146111b1578063a36a38ed14611193578063a93f859814611100578063a98ad46c146110d7578063abf5498c14610eb9578063ad0b27fb14610e2b578063b162061614610da7578063c74df34f14610d7e578063c9e5d679146109af578063d266e83b1461095c578063d6c72cec146108ae578063db2bf1e21461069d578063df022518146104f5578063e086e5ec14610453578063e3a6d26d146103e8578063f3612f5214610356578063f6326fb3146102f45763fbc67aab1461019757600080fd5b6020806003193601126102f057600435906101b56001548310612423565b818352600581526101cf60ff60046040862001541661245e565b8183526005815260006040842091604051926101ea84612190565b8054845260018101548285015260ff6004600283015492604087019384526040516102238161021c8160038601612330565b03826121dc565b60608801520154161515608085015261023e8451341461249a565b3386526006825260408620858752825261025d60408720541515612579565b338352600682526040832085845282526102a360016040852092835442811187146102de5761028d915190612694565b955b868455856004850155519201918254612694565b9055604051928352820152600060408201527fc8aa89700284569cb66a715ac234091aa3815474781f17db996bf092febd2fef60603392a380f35b506102ea905142612694565b9561028f565b5080fd5b50806003193601126103535761030b341515612653565b338152600460205260408120610322348254612694565b90556040513481527f6c703791f399558807424f489ccd811c72b4ff0b74af547264fad7c646776df060203392a280f35b80fd5b503461035357602036600319011261035357610370612139565b81546001600160a01b03919061038990831633146123c6565b1680156103ab576bffffffffffffffffffffffff60a01b600254161760025580f35b60405162461bcd60e51b8152602060048201526015602482015274496e76616c696420746f6b656e206164647265737360581b6044820152606490fd5b50346103535760203660031901126103535760043561041160018060a01b0383541633146123c6565b801561041d5760035580f35b60405162461bcd60e51b815260206004820152600e60248201526d496e76616c69642077696e646f7760901b6044820152606490fd5b503461035357806003193601126103535780546001600160a01b031661047a3382146123c6565b479182156104b757806104a3576104a1600080808087875af161049b6126a1565b506126d1565b005b634e487b7160e01b81526011600452602490fd5b60405162461bcd60e51b81526020600482015260166024820152754e6f20726576656e756520746f20776974686472617760501b6044820152606490fd5b5034610353576020806003193601126102f057600435906105196001548310612423565b8183526005815261053360ff60046040862001541661245e565b818352600581528260408120916040519261054d84612190565b80548452600181015493828101948552608060ff6004600285015494604085019586526040516105848161021c8160038601612330565b60608601520154161515910152338352600682526040832085845282526105b060408420541515612579565b60025484516040516323b872dd60e01b8152336004820152306024820152604481019190915293839185916064918391906001600160a01b03165af192831561069257600193610607918891610665575b50612536565b336000526006825260406000208560005282526102a3600260406000209283544281116000146106535761063c915190612694565b955b86845560006004850155519201918254612694565b5061065f905142612694565b9561063e565b6106859150843d861161068b575b61067d81836121dc565b81019061251e565b38610601565b503d610673565b6040513d88823e3d90fd5b5034610353576106ac366122ac565b906106b8839493612766565b926106c285612766565b948693875b8281106107905750505050506106dc81612766565b926106e682612766565b92855b83811061074d575050505060405191604083019360408452815180955260608401946020809301915b8181106107305785870384870152858061072c898861215c565b0390f35b82516001600160a01b031687529583019591830191600101610712565b61078b906001600160a01b0361076382856127a4565b511661076f82896127a4565b5261077a81856127a4565b5161078582886127a4565b526123fe565b6106e9565b6001600160a01b03806107ac6107a7848789612715565b61273b565b168a5260206006815260408b206107c484868a612715565b358c52815260408b2090604051906107db826121c1565b825482526001830154908201526002820154604082015260046003926108188482015460ff908181161515606087015260081c1660808501612798565b015460a082015280518015159283610896575b50508161088b575b50610848575b50610843906123fe565b6106c7565b81966108849161085f6107a761084395888a612715565b9061086a838c6127a4565b91169052610879888589612715565b35610785828c6127a4565b9590610839565b905051421038610833565b6108a39293505490612646565b42101590388061082b565b5034610353576040366003190112610353576004356024356002811015610958573360009081526006602090815260408083208584529091529020546108f5904210612579565b3383526006602052604083208284526020526109228160036040862001600160ff198254161781556125b6565b61092f604051809261214f565b7fc49d7db3453d728009a0df6ee5861a8ae71d58d0348f390c40b0c70e37a8d6bc60203392a380f35b8280fd5b50346103535760403660031901126103535760206109a561097b612139565b6001600160a01b031660009081526006602090815260408083206024358452909152902054421090565b6040519015158152f35b5034610353576080366003190112610353576004356001600160401b0381116102f0576109e090369060040161224f565b9190606435906109fa60018060a01b0384541633146123c6565b8315610d4957602490813515610d0d5760443515610cd0578215610c99576201518083818102048103610c8657604051610a3381612190565b8335815260443560208201528185026040820152610a52368885612218565b60608201526001608082015260015486526005602052604086209080518255602081015160018301556040810151600283015560608101518051906001600160401b038211610c7357610aa860038501546122f6565b601f8111610c2b575b50602090601f8311600114610b895760a094600460807f20967eb5636e245d629c28371d3fbe81954c8b7bcebf569661584d4a908b1d019996868e9f9a9697610b789f98610b30978d9a92610b7e575b50508160011b916000199060031b1c19161760038501555b0151151591019060ff801983541691151516179055565b600154978897604051968795608087528160808801528787013784840186018c90523560208501526044356040850152026060830152601f01601f19168101030190a26123fe565b60015580f35b015190503880610b01565b90600385018a5260208a20918a5b601f1985168110610c13575094600460807f20967eb5636e245d629c28371d3fbe81954c8b7bcebf569661584d4a908b1d0199966001610b789e9f9a96978b98610b309760a09c83601f19811610610bfa575b505050811b016003850155610b19565b015160001960f88460031b161c19169055388080610bea565b91926020600181928685015181550194019201610b97565b600385018a5260208a20601f840160051c81019160208510610c69575b601f0160051c01905b818110610c5e5750610ab1565b8a8155600101610c51565b9091508190610c48565b634e487b7160e01b895260416004528689fd5b634e487b7160e01b855260116004528285fd5b60405162461bcd60e51b8152602060048201526010818401526f125b9d985b1a59081a5b9d195c9d985b60821b6044820152606490fd5b60405162461bcd60e51b81526020600482015260168184015275055534454207072696365206d757374206265203e20360541b6044820152606490fd5b60405162461bcd60e51b815260206004820152601581840152740455448207072696365206d757374206265203e203605c1b6044820152606490fd5b60405162461bcd60e51b815260206004820152600d60248201526c13985b59481c995c5d5a5c9959609a1b6044820152606490fd5b503461035357604036600319011261035357610da4610d9b612139565b602435906127b8565b80f35b50346103535760203660031901126103535760409060043581526005602052208054600182015491610e1f60028201549160ff600460405192610df884610df18160038501612330565b03856121dc565b0154169260405195869586526020860152604085015260a0606085015260a08401906120b9565b90151560808301520390f35b503461035357602036600319011261035357600435338252600660205260408220818352602052610e6160408320541515612579565b338252600660205260408220818352602052816004604082208281558260018201558260028201558260038201550155337f3a55fe27d475f752627ad5cef7a30389a812bdee18d467b4601ea007cfbace018380a380f35b5034610353576020806003193601126102f05760043590610edd6001548310612423565b81835260058152610ef760ff60046040862001541661245e565b8183526005815260408320908360405192610f1184612190565b80548452600181015493838101948552608060ff600460028501549460408501958652604051610f488161021c8160038601612330565b60608601520154161515910152336000908152600660209081526040808320888452909152902054610f7d9042105b156124dd565b60025484516040516323b872dd60e01b8152336004820152306024820152604481019190915292849184916064918391906001600160a01b03165af191821561069257610fdb92610fd49188916110c05750612536565b5142612694565b915190604051610fea816121c1565b838152818101600081526040820193845260608201936000855260808301906001825260a0840192600084523360005260068652604060002089600052865260406000209451855551600185015551600284015561105b6003840195511515869060ff801983541691151516179055565b519060028210156110aa576110746004926001966125b6565b519101556040519283528201527fe80ac0b4ea22323668a97d0061945431dd5fcfe19549906b825be1360d775cc960403392a380f35b634e487b7160e01b600052602160045260246000fd5b6106859150853d871161068b5761067d81836121dc565b50346103535780600319360112610353576002546040516001600160a01b039091168152602090f35b50346103535761110f366122ac565b909181810361115657845b818110611125578580f35b8061114c61113a6107a761115194868a612715565b611145838789612715565b35906127b8565b6123fe565b61111a565b60405162461bcd60e51b8152602060048201526015602482015274082e4e4c2f240d8cadccee8d040dad2e6dac2e8c6d605b1b6044820152606490fd5b50346103535780600319360112610353576020600154604051908152f35b50346103535780600319360112610353576002546040516370a0823160e01b81523060048201529190602090839060249082906001600160a01b03165afa90811561123e5790611207575b602090604051908152f35b506020813d8211611236575b81611220602093836121dc565b8101031261123157602090516111fc565b600080fd5b3d9150611213565b604051903d90823e3d90fd5b506020806003193601126102f057600435906112696001548310612423565b8183526005815261128360ff60046040862001541661245e565b8183526005815260408320906113126040519261129f84612190565b8054845260018101548385015260ff6004600283015492604087019384526040516112d18161021c8160038601612330565b6060880152015416151560808501526112ec8451341461249a565b336000908152600660209081526040808320888452909152902054610fd4904210610f77565b915190604051611321816121c1565b83815281810192835260408101926000845260608201936000855260808301906000825260a084019260008452336000526006865260406000208960005286526040600020945185555160018501555160028401556113936003840195511515869060ff801983541691151516179055565b519060028210156110aa576110746004926000966125b6565b5034610353578060031936011261035357546040516001600160a01b039091168152602090f35b5034610353576040366003190112610353576113ed612139565b602435906113fe6001548310612423565b8183526020906005825261141b60ff60046040872001541661245e565b6001600160a01b031680845260068252604080852084865283528420600381018054929392909160ff82161561169957544210611662578486526005835285604081209160ff60046040519461147086612190565b805486526001810154888701526002810154604087015260405161149b8161021c8160038601612330565b606087015201541615156080840152303b156102f0576114f9926114e891604051948593849363498556ed60e01b85528a60048601528b60248601526080604486015260848501906120f9565b9160ff606485019160081c1661214f565b038183305af19081611633575b506115f85760018560033d116115e8575b6308c379a014611587575b61152e575b5050505080f35b7fb47a7b0b93a5be9467e03fdd9b623f28a657ef25d0b96710a9b8ab60144ed8ee9160609160ff198154169055600d604051918083528201526c2ab735b737bbb71032b93937b960991b6040820152a338808080611527565b61158f6125d5565b8061159b575b50611522565b905084847fb47a7b0b93a5be9467e03fdd9b623f28a657ef25d0b96710a9b8ab60144ed8ee6115df899460ff198754168755604051918291898352898301906120b9565b0390a338611595565b50600486803e855160e01c611517565b9060ff7f1bd3747aff39baa2d53e1cf455d6c63db654603889f04e4a959218c9c3c9bc24925460081c1661162f604051809261214f565ba380f35b6001600160401b03819792971161164e576040529438611506565b634e487b7160e01b82526041600452602482fd5b60405162461bcd60e51b815260048101849052600f60248201526e139bdd081e595d08195e1c1a5c9959608a1b6044820152606490fd5b60405162461bcd60e51b815260048101859052601860248201527f4175746f2d72656e6577616c206e6f7420656e61626c656400000000000000006044820152606490fd5b50346103535760203660031901126103535760043561170760018060a01b0383541633146123c6565b6117146001548210612423565b8152600560205260408120600401805460ff818116151660ff1990911617905580f35b503461035357602036600319011261035357600435906001600160401b03821161035357602061177361176d366004860161224f565b90612907565b604051908152f35b5034610353578060031936011261035357602047604051908152f35b50346103535760403660031901126103535760c0906040906001600160a01b036117bf612139565b168152600660205281812060243582526020522080549061181a600182015491600281015460046003830154920154936040519586526020860152604085015260ff81161515606085015260ff608085019160081c1661214f565b60a0820152f35b5034610353576003196080368201126102f05761183c612139565b9060243591604435916001600160401b0390818411611b325760a0908436030112611b2e576040519061186e82612190565b8360040135825260209081830194602481013586526040840191604482013583526064820135908111611b2a5781019036602383011215611b2a576118bf6084923690602460048201359101612218565b606086015201358015158103611b26576080840152606435926002841015611b2657303303611af157831594888615611a4057506001600160a01b038116808a526004855260408a20548351116119fb5792827fc8aa89700284569cb66a715ac234091aa3815474781f17db996bf092febd2fef9795926119c49561195560408e60609b98519381526004885220918254612646565b90555b6001600160a01b0316808c52600684526040808d208c8e5285528c208054919a90939091428111156119e95761198f915190612694565b965b8784558c60048501556000146119cf575060016119b391519201918254612694565b90555b60405193845283019061214f565b60016040820152a380f35b6119e29150600290519201918254612694565b90556119b6565b506119f5905142612694565b96611991565b60405162461bcd60e51b815260048101869052601860248201527f496e73756666696369656e74204554482062616c616e636500000000000000006044820152606490fd5b60025488516040516323b872dd60e01b81526001600160a01b038581166004830152306024830152604482019290925292989397939692959394929392918491879160649183918d91165af1968715611ae657611aca6060986119c4977fc8aa89700284569cb66a715ac234091aa3815474781f17db996bf092febd2fef9b91611acf5750612536565b611958565b6106859150863d881161068b5761067d81836121dc565b6040513d8a823e3d90fd5b60405162461bcd60e51b815260048101849052600d60248201526c496e7465726e616c206f6e6c7960981b6044820152606490fd5b8780fd5b8880fd5b8480fd5b8580fd5b5034610353578060031936011261035357600154611b5381612766565b8291835b818110611ba6575050611b6982612766565b925b828110611b88576040516020808252819061072c9082018761215c565b80611b96611ba192846127a4565b5161078582876127a4565b611b6b565b808552600560205260ff600460408720015416611bcc575b611bc7906123fe565b611b57565b92611bdf8185610785611bc794876127a4565b939050611bbe565b5034610353576020366003190112610353576020906040906001600160a01b03611c0f612139565b168152600483522054604051908152f35b503461035357604036600319011261035357611c3a612139565b6001600160a01b0381168252600660209081526040808420602435808652925280842090519192611c6a836121c1565b8154835260018201549360208401948552611ce8600284015491604086019283526003850154956004606082019660ff891615158852611cb460ff608085019a60081c168a612798565b015460a082015251965192519360018060a01b03166000526006602052604060002090600052602052604060002054421090565b925115159351956002871015611d2b575091611d29939160c096936040519687526020870152604086015215156060850152608084015260a083019061214f565bf35b634e487b7160e01b81526021600452602490fd5b503461035357806003193601126103535780546001600160a01b0390811690611d693383146123c6565b600254166040516370a0823160e01b81523060048201526020928382602481865afa918215611eab578592611e7c575b508115611e4157906044849286604051958694859363a9059cbb60e01b8552600485015260248401525af1908115611e36578391611e19575b5015611ddc575080f35b6064906040519062461bcd60e51b8252600482015260166024820152751554d115081dda5d1a191c985dd85b0819985a5b195960521b6044820152fd5b611e309150823d841161068b5761067d81836121dc565b38611dd2565b6040513d85823e3d90fd5b60405162461bcd60e51b81526004810185905260136024820152724e6f205553445420746f20776974686472617760681b6044820152606490fd5b9091508381813d8311611ea4575b611e9481836121dc565b81010312611b2e57519038611d99565b503d611e8a565b6040513d87823e3d90fd5b50346103535780600319360112610353576020600354604051908152f35b503461035357602036600319011261035357600435338252600660205260408220818352602052600360408320611f0d81541515612579565b01805460ff19169055337fd28f56d53bf660cee0f022989c4c056736272e2e1e389ed3fd1c7562d62a069d8380a380f35b50346103535760209081600319360112610353576040906004358160808451611f6681612190565b828152828782015282868201526060808201520152611f886001548210612423565b815260058352209060ff600460405193611fa185612190565b8054855260018101548486015260028101546040860152604051611fcc8161021c8160038601612330565b60608601520154161515608083015261072c6040519282849384528301906120f9565b9050346102f05760203660031901126102f057600435903383526004602052816040842054106120805750612025811515612653565b33825260046020526040822061203c828254612646565b90556120518280808085335af161049b6126a1565b6040519081527f94b2de810873337ed265c5f8cf98c9cffefa06b8607f9a2f1fbaebdfbcfbef1c60203392a280f35b62461bcd60e51b8152602060048201526014602482015273496e73756666696369656e742062616c616e636560601b6044820152606490fd5b919082519283825260005b8481106120e5575050826000602080949584010152601f8019910116010190565b6020818301810151848301820152016120c4565b9081518152602082015160208201526040820151604082015260808061212e606085015160a0606086015260a08501906120b9565b930151151591015290565b600435906001600160a01b038216820361123157565b9060028210156110aa5752565b90815180825260208080930193019160005b82811061217c575050505090565b83518552938101939281019260010161216e565b60a081019081106001600160401b038211176121ab57604052565b634e487b7160e01b600052604160045260246000fd5b60c081019081106001600160401b038211176121ab57604052565b90601f801991011681019081106001600160401b038211176121ab57604052565b6001600160401b0381116121ab57601f01601f191660200190565b929192612224826121fd565b9161223260405193846121dc565b829481845281830111611231578281602093846000960137010152565b9181601f84011215611231578235916001600160401b038311611231576020838186019501011161123157565b9181601f84011215611231578235916001600160401b038311611231576020808501948460051b01011161123157565b6040600319820112611231576001600160401b039160043583811161123157826122d89160040161227c565b93909392602435918211611231576122f29160040161227c565b9091565b90600182811c92168015612326575b602083101461231057565b634e487b7160e01b600052602260045260246000fd5b91607f1691612305565b9060009291805491612341836122f6565b9182825260019384811690816000146123a35750600114612363575b50505050565b90919394506000526020928360002092846000945b83861061238f57505050500101903880808061235d565b805485870183015294019385908201612378565b9294505050602093945060ff191683830152151560051b0101903880808061235d565b156123cd57565b60405162461bcd60e51b81526020600482015260096024820152682737ba1037bbb732b960b91b6044820152606490fd5b600019811461240d5760010190565b634e487b7160e01b600052601160045260246000fd5b1561242a57565b60405162461bcd60e51b815260206004820152600c60248201526b24b73b30b634b210383630b760a11b6044820152606490fd5b1561246557565b60405162461bcd60e51b815260206004820152600d60248201526c506c616e20696e61637469766560981b6044820152606490fd5b156124a157565b60405162461bcd60e51b8152602060048201526014602482015273125b98dbdc9c9958dd0811551208185b5bdd5b9d60621b6044820152606490fd5b156124e457565b60405162461bcd60e51b8152602060048201526012602482015271105b1c9958591e481cdd589cd8dc9a58995960721b6044820152606490fd5b90816020910312611231575180151581036112315790565b1561253d57565b60405162461bcd60e51b81526020600482015260146024820152731554d115081d1c985b9cd9995c8819985a5b195960621b6044820152606490fd5b1561258057565b60405162461bcd60e51b815260206004820152600e60248201526d139bdd081cdd589cd8dc9a58995960921b6044820152606490fd5b9060028110156110aa5761ff0082549160081b169061ff001916179055565b600060443d1061263257604051600319913d83016004833e81516001600160401b03918282113d6024840111176126355781840194855193841161263d573d850101602084870101116126355750612632929101602001906121dc565b90565b949350505050565b50949350505050565b9190820391821161240d57565b1561265a57565b60405162461bcd60e51b81526020600482015260126024820152710416d6f756e74206d757374206265203e20360741b6044820152606490fd5b9190820180921161240d57565b3d156126cc573d906126b2826121fd565b916126c060405193846121dc565b82523d6000602084013e565b606090565b156126d857565b60405162461bcd60e51b8152602060048201526015602482015274115512081dda5d1a191c985dd85b0819985a5b1959605a1b6044820152606490fd5b91908110156127255760051b0190565b634e487b7160e01b600052603260045260246000fd5b356001600160a01b03811681036112315790565b6001600160401b0381116121ab5760051b60200190565b906127708261274f565b61277d60405191826121dc565b828152809261278e601f199161274f565b0190602036910137565b60028210156110aa5752565b80518210156127255760209160051b010190565b6001600160a01b03166000818152600660209081526040808320858452909152808220805490949392811561285c574282111561290157506127fa4282612646565b905b811580806128f4575b156128415750505060207fe16733fc8e48d586fd2bfcd14697dfe3825072515db23837a3347950b2c191539185549051908152a3600442910155565b6003548084111591826128eb575b50816128d3575b50612864575b505050505050565b8285857f4247edb612b3cce7149b703152907629579dd862c731514c126e10f7ddb586c983602096620151807fb03b26f6e4bf2a59bd2453be3310044644599dffc8dcf0e97d802c5d9c1985e69951918883520488820152a351908152a360044291015538808080808061285c565b90506128e460048801549183612646565b1138612856565b1591503861284f565b5060048701548211612805565b906127fc565b60015491600091825b84811061292257505050505060001990565b80845260206005815260409081862060ff600482015416928361295d575b50505061295557612950906123fe565b612910565b935050505090565b60039293509061021c61297592518094819301612330565b81815191012090612987368686612218565b80519101201438808061294056fea26469706673582212203565bf8e726904dcc386b93c7dc6bf913f87a87e74ed941462b6566f6806487064736f6c63430008140033",
          "opcodes": "PUSH1 0x80 CALLVALUE PUSH2 0x81 JUMPI PUSH1 0x1F PUSH2 0x2A68 CODESIZE DUP2 SWAP1 SUB SWAP2 DUP3 ADD PUSH1 0x1F NOT AND DUP4 ADD SWAP2 PUSH1 0x1 PUSH1 0x1 PUSH1 0x40 SHL SUB DUP4 GT DUP5 DUP5 LT OR PUSH2 0x86 JUMPI DUP1 DUP5 SWAP3 PUSH1 0x20 SWAP5 PUSH1 0x40 MSTORE DUP4 CODECOPY DUP2 ADD SUB SLT PUSH2 0x81 JUMPI MLOAD PUSH1 0x1 PUSH1 0x1 PUSH1 0xA0 SHL SUB DUP2 AND SWAP1 DUP2 SWAP1 SUB PUSH2 0x81 JUMPI PUSH3 0x3F480 PUSH1 0x3 SSTORE PUSH1 0x1 DUP1 PUSH1 0xA0 SHL SUB NOT CALLER DUP2 PUSH1 0x0 SLOAD AND OR PUSH1 0x0 SSTORE PUSH1 0x2 SLOAD AND OR PUSH1 0x2 SSTORE PUSH1 0x40 MLOAD PUSH2 0x29CB SWAP1 DUP2 PUSH2 0x9D DUP3 CODECOPY RETURN JUMPDEST PUSH1 0x0 DUP1 REVERT JUMPDEST PUSH4 0x4E487B71 PUSH1 0xE0 SHL PUSH1 0x0 MSTORE PUSH1 0x41 PUSH1 0x4 MSTORE PUSH1 0x24 PUSH1 0x0 REVERT INVALID PUSH1 0x80 DUP1 PUSH1 0x40 MSTORE PUSH1 0x4 CALLDATASIZE LT ISZERO PUSH2 0x13 JUMPI PUSH1 0x0 DUP1 REVERT JUMPDEST PUSH1 0x0 SWAP1 DUP2 CALLDATALOAD PUSH1 0xE0 SHR SWAP1 DUP2 PUSH4 0x176C5106 EQ PUSH2 0x1FEF JUMPI POP DUP1 PUSH4 0x26CD5274 EQ PUSH2 0x1F3E JUMPI DUP1 PUSH4 0x296362FE EQ PUSH2 0x1ED4 JUMPI DUP1 PUSH4 0x2BF8335C EQ PUSH2 0x1EB6 JUMPI DUP1 PUSH4 0x362E496B EQ PUSH2 0x1D3F JUMPI DUP1 PUSH4 0x3AE9A18E EQ PUSH2 0x1C20 JUMPI DUP1 PUSH4 0x3CFBA0E3 EQ PUSH2 0x1BE7 JUMPI DUP1 PUSH4 0x43FE832C EQ PUSH2 0x1B36 JUMPI DUP1 PUSH4 0x498556ED EQ PUSH2 0x1821 JUMPI DUP1 PUSH4 0x623DA3D1 EQ PUSH2 0x1797 JUMPI DUP1 PUSH4 0x6E947298 EQ PUSH2 0x177B JUMPI DUP1 PUSH4 0x83917136 EQ PUSH2 0x1737 JUMPI DUP1 PUSH4 0x86ED56FA EQ PUSH2 0x16DE JUMPI DUP1 PUSH4 0x8A0323BA EQ PUSH2 0x13D3 JUMPI DUP1 PUSH4 0x8DA5CB5B EQ PUSH2 0x13AC JUMPI DUP1 PUSH4 0x92112162 EQ PUSH2 0x124A JUMPI DUP1 PUSH4 0x9785FAC8 EQ PUSH2 0x11B1 JUMPI DUP1 PUSH4 0xA36A38ED EQ PUSH2 0x1193 JUMPI DUP1 PUSH4 0xA93F8598 EQ PUSH2 0x1100 JUMPI DUP1 PUSH4 0xA98AD46C EQ PUSH2 0x10D7 JUMPI DUP1 PUSH4 0xABF5498C EQ PUSH2 0xEB9 JUMPI DUP1 PUSH4 0xAD0B27FB EQ PUSH2 0xE2B JUMPI DUP1 PUSH4 0xB1620616 EQ PUSH2 0xDA7 JUMPI DUP1 PUSH4 0xC74DF34F EQ PUSH2 0xD7E JUMPI DUP1 PUSH4 0xC9E5D679 EQ PUSH2 0x9AF JUMPI DUP1 PUSH4 0xD266E83B EQ PUSH2 0x95C JUMPI DUP1 PUSH4 0xD6C72CEC EQ PUSH2 0x8AE JUMPI DUP1 PUSH4 0xDB2BF1E2 EQ PUSH2 0x69D JUMPI DUP1 PUSH4 0xDF022518 EQ PUSH2 0x4F5 JUMPI DUP1 PUSH4 0xE086E5EC EQ PUSH2 0x453 JUMPI DUP1 PUSH4 0xE3A6D26D EQ PUSH2 0x3E8 JUMPI DUP1 PUSH4 0xF3612F52 EQ PUSH2 0x356 JUMPI DUP1 PUSH4 0xF6326FB3 EQ PUSH2 0x2F4 JUMPI PUSH4 0xFBC67AAB EQ PUSH2 0x197 JUMPI PUSH1 0x0 DUP1 REVERT JUMPDEST PUSH1 0x20 DUP1 PUSH1 0x3 NOT CALLDATASIZE ADD SLT PUSH2 0x2F0 JUMPI PUSH1 0x4 CALLDATALOAD SWAP1 PUSH2 0x1B5 PUSH1 0x1 SLOAD DUP4 LT PUSH2 0x2423 JUMP JUMPDEST DUP2 DUP4 MSTORE PUSH1 0x5 DUP2 MSTORE PUSH2 0x1CF PUSH1 0xFF PUSH1 0x4 PUSH1 0x40 DUP7 KECCAK256 ADD SLOAD AND PUSH2 0x245E JUMP JUMPDEST DUP2 DUP4 MSTORE PUSH1 0x5 DUP2 MSTORE PUSH1 0x0 PUSH1 0x40 DUP5 KECCAK256 SWAP2 PUSH1 0x40 MLOAD SWAP3 PUSH2 0x1EA DUP5 PUSH2 0x2190 JUMP JUMPDEST DUP1 SLOAD DUP5 MSTORE PUSH1 0x1 DUP2 ADD SLOAD DUP3 DUP6 ADD MSTORE PUSH1 0xFF PUSH1 0x4 PUSH1 0x2 DUP4 ADD SLOAD SWAP3 PUSH1 0x40 DUP8 ADD SWAP4 DUP5 MSTORE PUSH1 0x40 MLOAD PUSH2 0x223 DUP2 PUSH2 0x21C DUP2 PUSH1 0x3 DUP7 ADD PUSH2 0x2330 JUMP JUMPDEST SUB DUP3 PUSH2 0x21DC JUMP JUMPDEST PUSH1 0x60 DUP9 ADD MSTORE ADD SLOAD AND ISZERO ISZERO PUSH1 0x80 DUP6 ADD MSTORE PUSH2 0x23E DUP5 MLOAD CALLVALUE EQ PUSH2 0x249A JUMP JUMPDEST CALLER DUP7 MSTORE PUSH1 0x6 DUP3 MSTORE PUSH1 0x40 DUP7 KECCAK256 DUP6 DUP8 MSTORE DUP3 MSTORE PUSH2 0x25D PUSH1 0x40 DUP8 KECCAK256 SLOAD ISZERO ISZERO PUSH2 0x2579 JUMP JUMPDEST CALLER DUP4 MSTORE PUSH1 0x6 DUP3 MSTORE PUSH1 0x40 DUP4 KECCAK256 DUP6 DUP5 MSTORE DUP3 MSTORE PUSH2 0x2A3 PUSH1 0x1 PUSH1 0x40 DUP6 KECCAK256 SWAP3 DUP4 SLOAD TIMESTAMP DUP2 GT DUP8 EQ PUSH2 0x2DE JUMPI PUSH2 0x28D SWAP2 MLOAD SWAP1 PUSH2 0x2694 JUMP JUMPDEST SWAP6 JUMPDEST DUP7 DUP5 SSTORE DUP6 PUSH1 0x4 DUP6 ADD SSTORE MLOAD SWAP3 ADD SWAP2 DUP3 SLOAD PUSH2 0x2694 JUMP JUMPDEST SWAP1 SSTORE PUSH1 0x40 MLOAD SWAP3 DUP4 MSTORE DUP3 ADD MSTORE PUSH1 0x0 PUSH1 0x40 DUP3 ADD MSTORE PUSH32 0xC8AA89700284569CB66A715AC234091AA3815474781F17DB996BF092FEBD2FEF PUSH1 0x60 CALLER SWAP3 LOG3 DUP1 RETURN JUMPDEST POP PUSH2 0x2EA SWAP1 MLOAD TIMESTAMP PUSH2 0x2694 JUMP JUMPDEST SWAP6 PUSH2 0x28F JUMP JUMPDEST POP DUP1 REVERT JUMPDEST POP DUP1 PUSH1 0x3 NOT CALLDATASIZE ADD SLT PUSH2 0x353 JUMPI PUSH2 0x30B CALLVALUE ISZERO ISZERO PUSH2 0x2653 JUMP JUMPDEST CALLER DUP2 MSTORE PUSH1 0x4 PUSH1 0x20 MSTORE PUSH1 0x40 DUP2 KECCAK256 PUSH2 0x322 CALLVALUE DUP3 SLOAD PUSH2 0x2694 JUMP JUMPDEST SWAP1 SSTORE PUSH1 0x40 MLOAD CALLVALUE DUP2 MSTORE PUSH32 0x6C703791F399558807424F489CCD811C72B4FF0B74AF547264FAD7C646776DF0 PUSH1 0x20 CALLER SWAP3 LOG2 DUP1 RETURN JUMPDEST DUP1 REVERT JUMPDEST POP CALLVALUE PUSH2 0x353 JUMPI PUSH1 0x20 CALLDATASIZE PUSH1 0x3 NOT ADD SLT PUSH2 0x353 JUMPI PUSH2 0x370 PUSH2 0x2139 JUMP JUMPDEST DUP2 SLOAD PUSH1 0x1 PUSH1 0x1 PUSH1 0xA0 SHL SUB SWAP2 SWAP1 PUSH2 0x389 SWAP1 DUP4 AND CALLER EQ PUSH2 0x23C6 JUMP JUMPDEST AND DUP1 ISZERO PUSH2 0x3AB JUMPI PUSH12 0xFFFFFFFFFFFFFFFFFFFFFFFF PUSH1 0xA0 SHL PUSH1 0x2 SLOAD AND OR PUSH1 0x2 SSTORE DUP1 RETURN JUMPDEST PUSH1 0x40 MLOAD PUSH3 0x461BCD PUSH1 0xE5 SHL DUP2 MSTORE PUSH1 0x20 PUSH1 0x4 DUP3 ADD MSTORE PUSH1 0x15 PUSH1 0x24 DUP3 ADD MSTORE PUSH21 0x496E76616C696420746F6B656E2061646472657373 PUSH1 0x58 SHL PUSH1 0x44 DUP3 ADD MSTORE PUSH1 0x64 SWAP1 REVERT JUMPDEST POP CALLVALUE PUSH2 0x353 JUMPI PUSH1 0x20 CALLDATASIZE PUSH1 0x3 NOT ADD SLT PUSH2 0x353 JUMPI PUSH1 0x4 CALLDATALOAD PUSH2 0x411 PUSH1 0x1 DUP1 PUSH1 0xA0 SHL SUB DUP4 SLOAD AND CALLER EQ PUSH2 0x23C6 JUMP JUMPDEST DUP1 ISZERO PUSH2 0x41D JUMPI PUSH1 0x3 SSTORE DUP1 RETURN JUMPDEST PUSH1 0x40 MLOAD PUSH3 0x461BCD PUSH1 0xE5 SHL DUP2 MSTORE PUSH1 0x20 PUSH1 0x4 DUP3 ADD MSTORE PUSH1 0xE PUSH1 0x24 DUP3 ADD MSTORE PUSH14 0x496E76616C69642077696E646F77 PUSH1 0x90 SHL PUSH1 0x44 DUP3 ADD MSTORE PUSH1 0x64 SWAP1 REVERT JUMPDEST POP CALLVALUE PUSH2 0x353 JUMPI DUP1 PUSH1 0x3 NOT CALLDATASIZE ADD SLT PUSH2 0x353 JUMPI DUP1 SLOAD PUSH1 0x1 PUSH1 0x1 PUSH1 0xA0 SHL SUB AND PUSH2 0x47A CALLER DUP3 EQ PUSH2 0x23C6 JUMP JUMPDEST SELFBALANCE SWAP2 DUP3 ISZERO PUSH2 0x4B7 JUMPI DUP1 PUSH2 0x4A3 JUMPI PUSH2 0x4A1 PUSH1 0x0 DUP1 DUP1 DUP1 DUP8 DUP8 GAS CALL PUSH2 0x49B PUSH2 0x26A1 JUMP JUMPDEST POP PUSH2 0x26D1 JUMP JUMPDEST STOP JUMPDEST PUSH4 0x4E487B71 PUSH1 0xE0 SHL DUP2 MSTORE PUSH1 0x11 PUSH1 0x4 MSTORE PUSH1 0x24 SWAP1 REVERT JUMPDEST PUSH1 0x40 MLOAD PUSH3 0x461BCD PUSH1 0xE5 SHL DUP2 MSTORE PUSH1 0x20 PUSH1 0x4 DUP3 ADD MSTORE PUSH1 0x16 PUSH1 0x24 DUP3 ADD MSTORE PUSH22 0x4E6F20726576656E756520746F207769746864726177 PUSH1 0x50 SHL PUSH1 0x44 DUP3 ADD MSTORE PUSH1 0x64 SWAP1 REVERT JUMPDEST POP CALLVALUE PUSH2 0x353 JUMPI PUSH1 0x20 DUP1 PUSH1 0x3 NOT CALLDATASIZE ADD SLT PUSH2 0x2F0 JUMPI PUSH1 0x4 CALLDATALOAD SWAP1 PUSH2 0x519 PUSH1 0x1 SLOAD DUP4 LT PUSH2 0x2423 JUMP JUMPDEST DUP2 DUP4 MSTORE PUSH1 0x5 DUP2 MSTORE PUSH2 0x533 PUSH1 0xFF PUSH1 0x4 PUSH1 0x40 DUP7 KECCAK256 ADD SLOAD AND PUSH2 0x245E JUMP JUMPDEST DUP2 DUP4 MSTORE PUSH1 0x5 DUP2 MSTORE DUP3 PUSH1 0x40 DUP2 KECCAK256 SWAP2 PUSH1 0x40 MLOAD SWAP3 PUSH2 0x54D DUP5 PUSH2 0x2190 JUMP JUMPDEST DUP1 SLOAD DUP5 MSTORE PUSH1 0x1 DUP2 ADD SLOAD SWAP4 DUP3 DUP2 ADD SWAP5 DUP6 MSTORE PUSH1 0x80 PUSH1 0xFF PUSH1 0x4 PUSH1 0x2 DUP6 ADD SLOAD SWAP5 PUSH1 0x40 DUP6 ADD SWAP6 DUP7 MSTORE PUSH1 0x40 MLOAD PUSH2 0x584 DUP2 PUSH2 0x21C DUP2 PUSH1 0x3 DUP7 ADD PUSH2 0x2330 JUMP JUMPDEST PUSH1 0x60 DUP7 ADD MSTORE ADD SLOAD AND ISZERO ISZERO SWAP2 ADD MSTORE CALLER DUP4 MSTORE PUSH1 0x6 DUP3 MSTORE PUSH1 0x40 DUP4 KECCAK256 DUP6 DUP5 MSTORE DUP3 MSTORE PUSH2 0x5B0 PUSH1 0x40 DUP5 KECCAK256 SLOAD ISZERO ISZERO PUSH2 0x2579 JUMP JUMPDEST PUSH1 0x2 SLOAD DUP5 MLOAD PUSH1 0x40 MLOAD PUSH4 0x23B872DD PUSH1 0xE0 SHL DUP2 MSTORE CALLER PUSH1 0x4 DUP3 ADD MSTORE ADDRESS PUSH1 0x24 DUP3 ADD MSTORE PUSH1 0x44 DUP2 ADD SWAP2 SWAP1 SWAP2 MSTORE SWAP4 DUP4 SWAP2 DUP6 SWAP2 PUSH1 0x64 SWAP2 DUP4 SWAP2 SWAP1 PUSH1 0x1 PUSH1 0x1 PUSH1 0xA0 SHL SUB AND GAS CALL SWAP3 DUP4 ISZERO PUSH2 0x692 JUMPI PUSH1 0x1 SWAP4 PUSH2 0x607 SWAP2 DUP9 SWAP2 PUSH2 0x665 JUMPI JUMPDEST POP PUSH2 0x2536 JUMP JUMPDEST CALLER PUSH1 0x0 MSTORE PUSH1 0x6 DUP3 MSTORE PUSH1 0x40 PUSH1 0x0 KECCAK256 DUP6 PUSH1 0x0 MSTORE DUP3 MSTORE PUSH2 0x2A3 PUSH1 0x2 PUSH1 0x40 PUSH1 0x0 KECCAK256 SWAP3 DUP4 SLOAD TIMESTAMP DUP2 GT PUSH1 0x0 EQ PUSH2 0x653 JUMPI PUSH2 0x63C SWAP2 MLOAD SWAP1 PUSH2 0x2694 JUMP JUMPDEST SWAP6 JUMPDEST DUP7 DUP5 SSTORE PUSH1 0x0 PUSH1 0x4 DUP6 ADD SSTORE MLOAD SWAP3 ADD SWAP2 DUP3 SLOAD PUSH2 0x2694 JUMP JUMPDEST POP PUSH2 0x65F SWAP1 MLOAD TIMESTAMP PUSH2 0x2694 JUMP JUMPDEST SWAP6 PUSH2 0x63E JUMP JUMPDEST PUSH2 0x685 SWAP2 POP DUP5 RETURNDATASIZE DUP7 GT PUSH2 0x68B JUMPI JUMPDEST PUSH2 0x67D DUP2 DUP4 PUSH2 0x21DC JUMP JUMPDEST DUP2 ADD SWAP1 PUSH2 0x251E JUMP JUMPDEST CODESIZE PUSH2 0x601 JUMP JUMPDEST POP RETURNDATASIZE PUSH2 0x673 JUMP JUMPDEST PUSH1 0x40 MLOAD RETURNDATASIZE DUP9 DUP3 RETURNDATACOPY RETURNDATASIZE SWAP1 REVERT JUMPDEST POP CALLVALUE PUSH2 0x353 JUMPI PUSH2 0x6AC CALLDATASIZE PUSH2 0x22AC JUMP JUMPDEST SWAP1 PUSH2 0x6B8 DUP4 SWAP5 SWAP4 PUSH2 0x2766 JUMP JUMPDEST SWAP3 PUSH2 0x6C2 DUP6 PUSH2 0x2766 JUMP JUMPDEST SWAP5 DUP7 SWAP4 DUP8 JUMPDEST DUP3 DUP2 LT PUSH2 0x790 JUMPI POP POP POP POP POP PUSH2 0x6DC DUP2 PUSH2 0x2766 JUMP JUMPDEST SWAP3 PUSH2 0x6E6 DUP3 PUSH2 0x2766 JUMP JUMPDEST SWAP3 DUP6 JUMPDEST DUP4 DUP2 LT PUSH2 0x74D JUMPI POP POP POP POP PUSH1 0x40 MLOAD SWAP2 PUSH1 0x40 DUP4 ADD SWAP4 PUSH1 0x40 DUP5 MSTORE DUP2 MLOAD DUP1 SWAP6 MSTORE PUSH1 0x60 DUP5 ADD SWAP5 PUSH1 0x20 DUP1 SWAP4 ADD SWAP2 JUMPDEST DUP2 DUP2 LT PUSH2 0x730 JUMPI DUP6 DUP8 SUB DUP5 DUP8 ADD MSTORE DUP6 DUP1 PUSH2 0x72C DUP10 DUP9 PUSH2 0x215C JUMP JUMPDEST SUB SWAP1 RETURN JUMPDEST DUP3 MLOAD PUSH1 0x1 PUSH1 0x1 PUSH1 0xA0 SHL SUB AND DUP8 MSTORE SWAP6 DUP4 ADD SWAP6 SWAP2 DUP4 ADD SWAP2 PUSH1 0x1 ADD PUSH2 0x712 JUMP JUMPDEST PUSH2 0x78B SWAP1 PUSH1 0x1 PUSH1 0x1 PUSH1 0xA0 SHL SUB PUSH2 0x763 DUP3 DUP6 PUSH2 0x27A4 JUMP JUMPDEST MLOAD AND PUSH2 0x76F DUP3 DUP10 PUSH2 0x27A4 JUMP JUMPDEST MSTORE PUSH2 0x77A DUP2 DUP6 PUSH2 0x27A4 JUMP JUMPDEST MLOAD PUSH2 0x785 DUP3 DUP9 PUSH2 0x27A4 JUMP JUMPDEST MSTORE PUSH2 0x23FE JUMP JUMPDEST PUSH2 0x6E9 JUMP JUMPDEST PUSH1 0x1 PUSH1 0x1 PUSH1 0xA0 SHL SUB DUP1 PUSH2 0x7AC PUSH2 0x7A7 DUP5 DUP8 DUP10 PUSH2 0x2715 JUMP JUMPDEST PUSH2 0x273B JUMP JUMPDEST AND DUP11 MSTORE PUSH1 0x20 PUSH1 0x6 DUP2 MSTORE PUSH1 0x40 DUP12 KECCAK256 PUSH2 0x7C4 DUP5 DUP7 DUP11 PUSH2 0x2715 JUMP JUMPDEST CALLDATALOAD DUP13 MSTORE DUP2 MSTORE PUSH1 0x40 DUP12 KECCAK256 SWAP1 PUSH1 0x40 MLOAD SWAP1 PUSH2 0x7DB DUP3 PUSH2 0x21C1 JUMP JUMPDEST DUP3 SLOAD DUP3 MSTORE PUSH1 0x1 DUP4 ADD SLOAD SWAP1 DUP3 ADD MSTORE PUSH1 0x2 DUP3 ADD SLOAD PUSH1 0x40 DUP3 ADD MSTORE PUSH1 0x4 PUSH1 0x3 SWAP3 PUSH2 0x818 DUP5 DUP3 ADD SLOAD PUSH1 0xFF SWAP1 DUP2 DUP2 AND ISZERO ISZERO PUSH1 0x60 DUP8 ADD MSTORE PUSH1 0x8 SHR AND PUSH1 0x80 DUP6 ADD PUSH2 0x2798 JUMP JUMPDEST ADD SLOAD PUSH1 0xA0 DUP3 ADD MSTORE DUP1 MLOAD DUP1 ISZERO ISZERO SWAP3 DUP4 PUSH2 0x896 JUMPI JUMPDEST POP POP DUP2 PUSH2 0x88B JUMPI JUMPDEST POP PUSH2 0x848 JUMPI JUMPDEST POP PUSH2 0x843 SWAP1 PUSH2 0x23FE JUMP JUMPDEST PUSH2 0x6C7 JUMP JUMPDEST DUP2 SWAP7 PUSH2 0x884 SWAP2 PUSH2 0x85F PUSH2 0x7A7 PUSH2 0x843 SWAP6 DUP9 DUP11 PUSH2 0x2715 JUMP JUMPDEST SWAP1 PUSH2 0x86A DUP4 DUP13 PUSH2 0x27A4 JUMP JUMPDEST SWAP2 AND SWAP1 MSTORE PUSH2 0x879 DUP9 DUP6 DUP10 PUSH2 0x2715 JUMP JUMPDEST CALLDATALOAD PUSH2 0x785 DUP3 DUP13 PUSH2 0x27A4 JUMP JUMPDEST SWAP6 SWAP1 PUSH2 0x839 JUMP JUMPDEST SWAP1 POP MLOAD TIMESTAMP LT CODESIZE PUSH2 0x833 JUMP JUMPDEST PUSH2 0x8A3 SWAP3 SWAP4 POP SLOAD SWAP1 PUSH2 0x2646 JUMP JUMPDEST TIMESTAMP LT ISZERO SWAP1 CODESIZE DUP1 PUSH2 0x82B JUMP JUMPDEST POP CALLVALUE PUSH2 0x353 JUMPI PUSH1 0x40 CALLDATASIZE PUSH1 0x3 NOT ADD SLT PUSH2 0x353 JUMPI PUSH1 0x4 CALLDATALOAD PUSH1 0x24 CALLDATALOAD PUSH1 0x2 DUP2 LT ISZERO PUSH2 0x958 JUMPI CALLER PUSH1 0x0 SWAP1 DUP2 MSTORE PUSH1 0x6 PUSH1 0x20 SWAP1 DUP2 MSTORE PUSH1 0x40 DUP1 DUP4 KECCAK256 DUP6 DUP5 MSTORE SWAP1 SWAP2 MSTORE SWAP1 KECCAK256 SLOAD PUSH2 0x8F5 SWAP1 TIMESTAMP LT PUSH2 0x2579 JUMP JUMPDEST CALLER DUP4 MSTORE PUSH1 0x6 PUSH1 0x20 MSTORE PUSH1 0x40 DUP4 KECCAK256 DUP3 DUP5 MSTORE PUSH1 0x20 MSTORE PUSH2 0x922 DUP2 PUSH1 0x3 PUSH1 0x40 DUP7 KECCAK256 ADD PUSH1 0x1 PUSH1 0xFF NOT DUP3 SLOAD AND OR DUP2 SSTORE PUSH2 0x25B6 JUMP JUMPDEST PUSH2 0x92F PUSH1 0x40 MLOAD DUP1 SWAP3 PUSH2 0x214F JUMP JUMPDEST PUSH32 0xC49D7DB3453D728009A0DF6EE5861A8AE71D58D0348F390C40B0C70E37A8D6BC PUSH1 0x20 CALLER SWAP3 LOG3 DUP1 RETURN JUMPDEST DUP3 DUP1 REVERT JUMPDEST POP CALLVALUE PUSH2 0x353 JUMPI PUSH1 0x40 CALLDATASIZE PUSH1 0x3 NOT ADD SLT PUSH2 0x353 JUMPI PUSH1 0x20 PUSH2 0x9A5 PUSH2 0x97B PUSH2 0x2139 JUMP JUMPDEST PUSH1 0x1 PUSH1 0x1 PUSH1 0xA0 SHL SUB AND PUSH1 0x0 SWAP1 DUP2 MSTORE PUSH1 0x6 PUSH1 0x20 SWAP1 DUP2 MSTORE PUSH1 0x40 DUP1 DUP4 KECCAK256 PUSH1 0x24 CALLDATALOAD DUP5 MSTORE SWAP1 SWAP2 MSTORE SWAP1 KECCAK256 SLOAD TIMESTAMP LT SWAP1 JUMP JUMPDEST PUSH1 0x40 MLOAD SWAP1 ISZERO ISZERO DUP2 MSTORE RETURN JUMPDEST POP CALLVALUE PUSH2 0x353 JUMPI PUSH1 0x80 CALLDATASIZE PUSH1 0x3 NOT ADD SLT PUSH2 0x353 JUMPI PUSH1 0x4 CALLDATALOAD PUSH1 0x1 PUSH1 0x1 PUSH1 0x40 SHL SUB DUP2 GT PUSH2 0x2F0 JUMPI PUSH2 0x9E0 SWAP1 CALLDATASIZE SWAP1 PUSH1 0x4 ADD PUSH2 0x224F JUMP JUMPDEST SWAP2 SWAP1 PUSH1 0x64 CALLDATALOAD SWAP1 PUSH2 0x9FA PUSH1 0x1 DUP1 PUSH1 0xA0 SHL SUB DUP5 SLOAD AND CALLER EQ PUSH2 0x23C6 JUMP JUMPDEST DUP4 ISZERO PUSH2 0xD49 JUMPI PUSH1 0x24 SWAP1 DUP2 CALLDATALOAD ISZERO PUSH2 0xD0D JUMPI PUSH1 0x44 CALLDATALOAD ISZERO PUSH2 0xCD0 JUMPI DUP3 ISZERO PUSH2 0xC99 JUMPI PUSH3 0x15180 DUP4 DUP2 DUP2 MUL DIV DUP2 SUB PUSH2 0xC86 JUMPI PUSH1 0x40 MLOAD PUSH2 0xA33 DUP2 PUSH2 0x2190 JUMP JUMPDEST DUP4 CALLDATALOAD DUP2 MSTORE PUSH1 0x44 CALLDATALOAD PUSH1 0x20 DUP3 ADD MSTORE DUP2 DUP6 MUL PUSH1 0x40 DUP3 ADD MSTORE PUSH2 0xA52 CALLDATASIZE DUP9 DUP6 PUSH2 0x2218 JUMP JUMPDEST PUSH1 0x60 DUP3 ADD MSTORE PUSH1 0x1 PUSH1 0x80 DUP3 ADD MSTORE PUSH1 0x1 SLOAD DUP7 MSTORE PUSH1 0x5 PUSH1 0x20 MSTORE PUSH1 0x40 DUP7 KECCAK256 SWAP1 DUP1 MLOAD DUP3 SSTORE PUSH1 0x20 DUP2 ADD MLOAD PUSH1 0x1 DUP4 ADD SSTORE PUSH1 0x40 DUP2 ADD MLOAD PUSH1 0x2 DUP4 ADD SSTORE PUSH1 0x60 DUP2 ADD MLOAD DUP1 MLOAD SWAP1 PUSH1 0x1 PUSH1 0x1 PUSH1 0x40 SHL SUB DUP3 GT PUSH2 0xC73 JUMPI PUSH2 0xAA8 PUSH1 0x3 DUP6 ADD SLOAD PUSH2 0x22F6 JUMP JUMPDEST PUSH1 0x1F DUP2 GT PUSH2 0xC2B JUMPI JUMPDEST POP PUSH1 0x20 SWAP1 PUSH1 0x1F DUP4 GT PUSH1 0x1 EQ PUSH2 0xB89 JUMPI PUSH1 0xA0 SWAP5 PUSH1 0x4 PUSH1 0x80 PUSH32 0x20967EB5636E245D629C28371D3FBE81954C8B7BCEBF569661584D4A908B1D01 SWAP10 SWAP7 DUP7 DUP15 SWAP16 SWAP11 SWAP7 SWAP8 PUSH2 0xB78 SWAP16 SWAP9 PUSH2 0xB30 SWAP8 DUP14 SWAP11 SWAP3 PUSH2 0xB7E JUMPI JUMPDEST POP POP DUP2 PUSH1 0x1 SHL SWAP2 PUSH1 0x0 NOT SWAP1 PUSH1 0x3 SHL SHR NOT AND OR PUSH1 0x3 DUP6 ADD SSTORE JUMPDEST ADD MLOAD ISZERO ISZERO SWAP2 ADD SWAP1 PUSH1 0xFF DUP1 NOT DUP4 SLOAD AND SWAP2 ISZERO ISZERO AND OR SWAP1 SSTORE JUMP JUMPDEST PUSH1 0x1 SLOAD SWAP8 DUP9 SWAP8 PUSH1 0x40 MLOAD SWAP7 DUP8 SWAP6 PUSH1 0x80 DUP8 MSTORE DUP2 PUSH1 0x80 DUP9 ADD MSTORE DUP8 DUP8 ADD CALLDATACOPY DUP5 DUP5 ADD DUP7 ADD DUP13 SWAP1 MSTORE CALLDATALOAD PUSH1 0x20 DUP6 ADD MSTORE PUSH1 0x44 CALLDATALOAD PUSH1 0x40 DUP6 ADD MSTORE MUL PUSH1 0x60 DUP4 ADD MSTORE PUSH1 0x1F ADD PUSH1 0x1F NOT AND DUP2 ADD SUB ADD SWAP1 LOG2 PUSH2 0x23FE JUMP JUMPDEST PUSH1 0x1 SSTORE DUP1 RETURN JUMPDEST ADD MLOAD SWAP1 POP CODESIZE DUP1 PUSH2 0xB01 JUMP JUMPDEST SWAP1 PUSH1 0x3 DUP6 ADD DUP11 MSTORE PUSH1 0x20 DUP11 KECCAK256 SWAP2 DUP11 JUMPDEST PUSH1 0x1F NOT DUP6 AND DUP2 LT PUSH2 0xC13 JUMPI POP SWAP5 PUSH1 0x4 PUSH1 0x80 PUSH32 0x20967EB5636E245D629C28371D3FBE81954C8B7BCEBF569661584D4A908B1D01 SWAP10 SWAP7 PUSH1 0x1 PUSH2 0xB78 SWAP15 SWAP16 SWAP11 SWAP7 SWAP8 DUP12 SWAP9 PUSH2 0xB30 SWAP8 PUSH1 0xA0 SWAP13 DUP4 PUSH1 0x1F NOT DUP2 AND LT PUSH2 0xBFA JUMPI JUMPDEST POP POP POP DUP2 SHL ADD PUSH1 0x3 DUP6 ADD SSTORE PUSH2 0xB19 JUMP JUMPDEST ADD MLOAD PUSH1 0x0 NOT PUSH1 0xF8 DUP5 PUSH1 0x3 SHL AND SHR NOT AND SWAP1 SSTORE CODESIZE DUP1 DUP1 PUSH2 0xBEA JUMP JUMPDEST SWAP2 SWAP3 PUSH1 0x20 PUSH1 0x1 DUP2 SWAP3 DUP7 DUP6 ADD MLOAD DUP2 SSTORE ADD SWAP5 ADD SWAP3 ADD PUSH2 0xB97 JUMP JUMPDEST PUSH1 0x3 DUP6 ADD DUP11 MSTORE PUSH1 0x20 DUP11 KECCAK256 PUSH1 0x1F DUP5 ADD PUSH1 0x5 SHR DUP2 ADD SWAP2 PUSH1 0x20 DUP6 LT PUSH2 0xC69 JUMPI JUMPDEST PUSH1 0x1F ADD PUSH1 0x5 SHR ADD SWAP1 JUMPDEST DUP2 DUP2 LT PUSH2 0xC5E JUMPI POP PUSH2 0xAB1 JUMP JUMPDEST DUP11 DUP2 SSTORE PUSH1 0x1 ADD PUSH2 0xC51 JUMP JUMPDEST SWAP1 SWAP2 POP DUP2 SWAP1 PUSH2 0xC48 JUMP JUMPDEST PUSH4 0x4E487B71 PUSH1 0xE0 SHL DUP10 MSTORE PUSH1 0x41 PUSH1 0x4 MSTORE DUP7 DUP10 REVERT JUMPDEST PUSH4 0x4E487B71 PUSH1 0xE0 SHL DUP6 MSTORE PUSH1 0x11 PUSH1 0x4 MSTORE DUP3 DUP6 REVERT JUMPDEST PUSH1 0x40 MLOAD PUSH3 0x461BCD PUSH1 0xE5 SHL DUP2 MSTORE PUSH1 0x20 PUSH1 0x4 DUP3 ADD MSTORE PUSH1 0x10 DUP2 DUP5 ADD MSTORE PUSH16 0x125B9D985B1A59081A5B9D195C9D985B PUSH1 0x82 SHL PUSH1 0x44 DUP3 ADD MSTORE PUSH1 0x64 SWAP1 REVERT JUMPDEST PUSH1 0x40 MLOAD PUSH3 0x461BCD PUSH1 0xE5 SHL DUP2 MSTORE PUSH1 0x20 PUSH1 0x4 DUP3 ADD MSTORE PUSH1 0x16 DUP2 DUP5 ADD MSTORE PUSH22 0x55534454207072696365206D757374206265203E203 PUSH1 0x54 SHL PUSH1 0x44 DUP3 ADD MSTORE PUSH1 0x64 SWAP1 REVERT JUMPDEST PUSH1 0x40 MLOAD PUSH3 0x461BCD PUSH1 0xE5 SHL DUP2 MSTORE PUSH1 0x20 PUSH1 0x4 DUP3 ADD MSTORE PUSH1 0x15 DUP2 DUP5 ADD MSTORE PUSH21 0x455448207072696365206D757374206265203E203 PUSH1 0x5C SHL PUSH1 0x44 DUP3 ADD MSTORE PUSH1 0x64 SWAP1 REVERT JUMPDEST PUSH1 0x40 MLOAD PUSH3 0x461BCD PUSH1 0xE5 SHL DUP2 MSTORE PUSH1 0x20 PUSH1 0x4 DUP3 ADD MSTORE PUSH1 0xD PUSH1 0x24 DUP3 ADD MSTORE PUSH13 0x13985B59481C995C5D5A5C9959 PUSH1 0x9A SHL PUSH1 0x44 DUP3 ADD MSTORE PUSH1 0x64 SWAP1 REVERT JUMPDEST POP CALLVALUE PUSH2 0x353 JUMPI PUSH1 0x40 CALLDATASIZE PUSH1 0x3 NOT ADD SLT PUSH2 0x353 JUMPI PUSH2 0xDA4 PUSH2 0xD9B PUSH2 0x2139 JUMP JUMPDEST PUSH1 0x24 CALLDATALOAD SWAP1 PUSH2 0x27B8 JUMP JUMPDEST DUP1 RETURN JUMPDEST POP CALLVALUE PUSH2 0x353 JUMPI PUSH1 0x20 CALLDATASIZE PUSH1 0x3 NOT ADD SLT PUSH2 0x353 JUMPI PUSH1 0x40 SWAP1 PUSH1 0x4 CALLDATALOAD DUP2 MSTORE PUSH1 0x5 PUSH1 0x20 MSTORE KECCAK256 DUP1 SLOAD PUSH1 0x1 DUP3 ADD SLOAD SWAP2 PUSH2 0xE1F PUSH1 0x2 DUP3 ADD SLOAD SWAP2 PUSH1 0xFF PUSH1 0x4 PUSH1 0x40 MLOAD SWAP3 PUSH2 0xDF8 DUP5 PUSH2 0xDF1 DUP2 PUSH1 0x3 DUP6 ADD PUSH2 0x2330 JUMP JUMPDEST SUB DUP6 PUSH2 0x21DC JUMP JUMPDEST ADD SLOAD AND SWAP3 PUSH1 0x40 MLOAD SWAP6 DUP7 SWAP6 DUP7 MSTORE PUSH1 0x20 DUP7 ADD MSTORE PUSH1 0x40 DUP6 ADD MSTORE PUSH1 0xA0 PUSH1 0x60 DUP6 ADD MSTORE PUSH1 0xA0 DUP5 ADD SWAP1 PUSH2 0x20B9 JUMP JUMPDEST SWAP1 ISZERO ISZERO PUSH1 0x80 DUP4 ADD MSTORE SUB SWAP1 RETURN JUMPDEST POP CALLVALUE PUSH2 0x353 JUMPI PUSH1 0x20 CALLDATASIZE PUSH1 0x3 NOT ADD SLT PUSH2 0x353 JUMPI PUSH1 0x4 CALLDATALOAD CALLER DUP3 MSTORE PUSH1 0x6 PUSH1 0x20 MSTORE PUSH1 0x40 DUP3 KECCAK256 DUP2 DUP4 MSTORE PUSH1 0x20 MSTORE PUSH2 0xE61 PUSH1 0x40 DUP4 KECCAK256 SLOAD ISZERO ISZERO PUSH2 0x2579 JUMP JUMPDEST CALLER DUP3 MSTORE PUSH1 0x6 PUSH1 0x20 MSTORE PUSH1 0x40 DUP3 KECCAK256 DUP2 DUP4 MSTORE PUSH1 0x20 MSTORE DUP2 PUSH1 0x4 PUSH1 0x40 DUP3 KECCAK256 DUP3 DUP2 SSTORE DUP3 PUSH1 0x1 DUP3 ADD SSTORE DUP3 PUSH1 0x2 DUP3 ADD SSTORE DUP3 PUSH1 0x3 DUP3 ADD SSTORE ADD SSTORE CALLER PUSH32 0x3A55FE27D475F752627AD5CEF7A30389A812BDEE18D467B4601EA007CFBACE01 DUP4 DUP1 LOG3 DUP1 RETURN JUMPDEST POP CALLVALUE PUSH2 0x353 JUMPI PUSH1 0x20 DUP1 PUSH1 0x3 NOT CALLDATASIZE ADD SLT PUSH2 0x2F0 JUMPI PUSH1 0x4 CALLDATALOAD SWAP1 PUSH2 0xEDD PUSH1 0x1 SLOAD DUP4 LT PUSH2 0x2423 JUMP JUMPDEST DUP2 DUP4 MSTORE PUSH1 0x5 DUP2 MSTORE PUSH2 0xEF7 PUSH1 0xFF PUSH1 0x4 PUSH1 0x40 DUP7 KECCAK256 ADD SLOAD AND PUSH2 0x245E JUMP JUMPDEST DUP2 DUP4 MSTORE PUSH1 0x5 DUP2 MSTORE PUSH1 0x40 DUP4 KECCAK256 SWAP1 DUP4 PUSH1 0x40 MLOAD SWAP3 PUSH2 0xF11 DUP5 PUSH2 0x2190 JUMP JUMPDEST DUP1 SLOAD DUP5 MSTORE PUSH1 0x1 DUP2 ADD SLOAD SWAP4 DUP4 DUP2 ADD SWAP5 DUP6 MSTORE PUSH1 0x80 PUSH1 0xFF PUSH1 0x4 PUSH1 0x2 DUP6 ADD SLOAD SWAP5 PUSH1 0x40 DUP6 ADD SWAP6 DUP7 MSTORE PUSH1 0x40 MLOAD PUSH2 0xF48 DUP2 PUSH2 0x21C DUP2 PUSH1 0x3 DUP7 ADD PUSH2 0x2330 JUMP JUMPDEST PUSH1 0x60 DUP7 ADD MSTORE ADD SLOAD AND ISZERO ISZERO SWAP2 ADD MSTORE CALLER PUSH1 0x0 SWAP1 DUP2 MSTORE PUSH1 0x6 PUSH1 0x20 SWAP1 DUP2 MSTORE PUSH1 0x40 DUP1 DUP4 KECCAK256 DUP9 DUP5 MSTORE SWAP1 SWAP2 MSTORE SWAP1 KECCAK256 SLOAD PUSH2 0xF7D SWAP1 TIMESTAMP LT JUMPDEST ISZERO PUSH2 0x24DD JUMP JUMPDEST PUSH1 0x2 SLOAD DUP5 MLOAD PUSH1 0x40 MLOAD PUSH4 0x23B872DD PUSH1 0xE0 SHL DUP2 MSTORE CALLER PUSH1 0x4 DUP3 ADD MSTORE ADDRESS PUSH1 0x24 DUP3 ADD MSTORE PUSH1 0x44 DUP2 ADD SWAP2 SWAP1 SWAP2 MSTORE SWAP3 DUP5 SWAP2 DUP5 SWAP2 PUSH1 0x64 SWAP2 DUP4 SWAP2 SWAP1 PUSH1 0x1 PUSH1 0x1 PUSH1 0xA0 SHL SUB AND GAS CALL SWAP2 DUP3 ISZERO PUSH2 0x692 JUMPI PUSH2 0xFDB SWAP3 PUSH2 0xFD4 SWAP2 DUP9 SWAP2 PUSH2 0x10C0 JUMPI POP PUSH2 0x2536 JUMP JUMPDEST MLOAD TIMESTAMP PUSH2 0x2694 JUMP JUMPDEST SWAP2 MLOAD SWAP1 PUSH1 0x40 MLOAD PUSH2 0xFEA DUP2 PUSH2 0x21C1 JUMP JUMPDEST DUP4 DUP2 MSTORE DUP2 DUP2 ADD PUSH1 0x0 DUP2 MSTORE PUSH1 0x40 DUP3 ADD SWAP4 DUP5 MSTORE PUSH1 0x60 DUP3 ADD SWAP4 PUSH1 0x0 DUP6 MSTORE PUSH1 0x80 DUP4 ADD SWAP1 PUSH1 0x1 DUP3 MSTORE PUSH1 0xA0 DUP5 ADD SWAP3 PUSH1 0x0 DUP5 MSTORE CALLER PUSH1 0x0 MSTORE PUSH1 0x6 DUP7 MSTORE PUSH1 0x40 PUSH1 0x0 KECCAK256 DUP10 PUSH1 0x0 MSTORE DUP7 MSTORE PUSH1 0x40 PUSH1 0x0 KECCAK256 SWAP5 MLOAD DUP6 SSTORE MLOAD PUSH1 0x1 DUP6 ADD SSTORE MLOAD PUSH1 0x2 DUP5 ADD SSTORE PUSH2 0x105B PUSH1 0x3 DUP5 ADD SWAP6 MLOAD ISZERO ISZERO DUP7 SWAP1 PUSH1 0xFF DUP1 NOT DUP4 SLOAD AND SWAP2 ISZERO ISZERO AND OR SWAP1 SSTORE JUMP JUMPDEST MLOAD SWAP1 PUSH1 0x2 DUP3 LT ISZERO PUSH2 0x10AA JUMPI PUSH2 0x1074 PUSH1 0x4 SWAP3 PUSH1 0x1 SWAP7 PUSH2 0x25B6 JUMP JUMPDEST MLOAD SWAP2 ADD SSTORE PUSH1 0x40 MLOAD SWAP3 DUP4 MSTORE DUP3 ADD MSTORE PUSH32 0xE80AC0B4EA22323668A97D0061945431DD5FCFE19549906B825BE1360D775CC9 PUSH1 0x40 CALLER SWAP3 LOG3 DUP1 RETURN JUMPDEST PUSH4 0x4E487B71 PUSH1 0xE0 SHL PUSH1 0x0 MSTORE PUSH1 0x21 PUSH1 0x4 MSTORE PUSH1 0x24 PUSH1 0x0 REVERT JUMPDEST PUSH2 0x685 SWAP2 POP DUP6 RETURNDATASIZE DUP8 GT PUSH2 0x68B JUMPI PUSH2 0x67D DUP2 DUP4 PUSH2 0x21DC JUMP JUMPDEST POP CALLVALUE PUSH2 0x353 JUMPI DUP1 PUSH1 0x3 NOT CALLDATASIZE ADD SLT PUSH2 0x353 JUMPI PUSH1 0x2 SLOAD PUSH1 0x40 MLOAD PUSH1 0x1 PUSH1 0x1 PUSH1 0xA0 SHL SUB SWAP1 SWAP2 AND DUP2 MSTORE PUSH1 0x20 SWAP1 RETURN JUMPDEST POP CALLVALUE PUSH2 0x353 JUMPI PUSH2 0x110F CALLDATASIZE PUSH2 0x22AC JUMP JUMPDEST SWAP1 SWAP2 DUP2 DUP2 SUB PUSH2 0x1156 JUMPI DUP5 JUMPDEST DUP2 DUP2 LT PUSH2 0x1125 JUMPI DUP6 DUP1 RETURN JUMPDEST DUP1 PUSH2 0x114C PUSH2 0x113A PUSH2 0x7A7 PUSH2 0x1151 SWAP5 DUP7 DUP11 PUSH2 0x2715 JUMP JUMPDEST PUSH2 0x1145 DUP4 DUP8 DUP10 PUSH2 0x2715 JUMP JUMPDEST CALLDATALOAD SWAP1 PUSH2 0x27B8 JUMP JUMPDEST PUSH2 0x23FE JUMP JUMPDEST PUSH2 0x111A JUMP JUMPDEST PUSH1 0x40 MLOAD PUSH3 0x461BCD PUSH1 0xE5 SHL DUP2 MSTORE PUSH1 0x20 PUSH1 0x4 DUP3 ADD MSTORE PUSH1 0x15 PUSH1 0x24 DUP3 ADD MSTORE PUSH21 0x82E4E4C2F240D8CADCCEE8D040DAD2E6DAC2E8C6D PUSH1 0x5B SHL PUSH1 0x44 DUP3 ADD MSTORE PUSH1 0x64 SWAP1 REVERT JUMPDEST POP CALLVALUE PUSH2 0x353 JUMPI DUP1 PUSH1 0x3 NOT CALLDATASIZE ADD SLT PUSH2 0x353 JUMPI PUSH1 0x20 PUSH1 0x1 SLOAD PUSH1 0x40 MLOAD SWAP1 DUP2 MSTORE RETURN JUMPDEST POP CALLVALUE PUSH2 0x353 JUMPI DUP1 PUSH1 0x3 NOT CALLDATASIZE ADD SLT PUSH2 0x353 JUMPI PUSH1 0x2 SLOAD PUSH1 0x40 MLOAD PUSH4 0x70A08231 PUSH1 0xE0 SHL DUP2 MSTORE ADDRESS PUSH1 0x4 DUP3 ADD MSTORE SWAP2 SWAP1 PUSH1 0x20 SWAP1 DUP4 SWAP1 PUSH1 0x24 SWAP1 DUP3 SWAP1 PUSH1 0x1 PUSH1 0x1 PUSH1 0xA0 SHL SUB AND GAS STATICCALL SWAP1 DUP2 ISZERO PUSH2 0x123E JUMPI SWAP1 PUSH2 0x1207 JUMPI JUMPDEST PUSH1 0x20 SWAP1 PUSH1 0x40 MLOAD SWAP1 DUP2 MSTORE RETURN JUMPDEST POP PUSH1 0x20 DUP2 RETURNDATASIZE DUP3 GT PUSH2 0x1236 JUMPI JUMPDEST DUP2 PUSH2 0x1220 PUSH1 0x20 SWAP4 DUP4 PUSH2 0x21DC JUMP JUMPDEST DUP2 ADD SUB SLT PUSH2 0x1231 JUMPI PUSH1 0x20 SWAP1 MLOAD PUSH2 0x11FC JUMP JUMPDEST PUSH1 0x0 DUP1 REVERT JUMPDEST RETURNDATASIZE SWAP2 POP PUSH2 0x1213 JUMP JUMPDEST PUSH1 0x40 MLOAD SWAP1 RETURNDATASIZE SWAP1 DUP3 RETURNDATACOPY RETURNDATASIZE SWAP1 REVERT JUMPDEST POP PUSH1 0x20 DUP1 PUSH1 0x3 NOT CALLDATASIZE ADD SLT PUSH2 0x2F0 JUMPI PUSH1 0x4 CALLDATALOAD SWAP1 PUSH2 0x1269 PUSH1 0x1 SLOAD DUP4 LT PUSH2 0x2423 JUMP JUMPDEST DUP2 DUP4 MSTORE PUSH1 0x5 DUP2 MSTORE PUSH2 0x1283 PUSH1 0xFF PUSH1 0x4 PUSH1 0x40 DUP7 KECCAK256 ADD SLOAD AND PUSH2 0x245E JUMP JUMPDEST DUP2 DUP4 MSTORE PUSH1 0x5 DUP2 MSTORE PUSH1 0x40 DUP4 KECCAK256 SWAP1 PUSH2 0x1312 PUSH1 0x40 MLOAD SWAP3 PUSH2 0x129F DUP5 PUSH2 0x2190 JUMP JUMPDEST DUP1 SLOAD DUP5 MSTORE PUSH1 0x1 DUP2 ADD SLOAD DUP4 DUP6 ADD MSTORE PUSH1 0xFF PUSH1 0x4 PUSH1 0x2 DUP4 ADD SLOAD SWAP3 PUSH1 0x40 DUP8 ADD SWAP4 DUP5 MSTORE PUSH1 0x40 MLOAD PUSH2 0x12D1 DUP2 PUSH2 0x21C DUP2 PUSH1 0x3 DUP7 ADD PUSH2 0x2330 JUMP JUMPDEST PUSH1 0x60 DUP9 ADD MSTORE ADD SLOAD AND ISZERO ISZERO PUSH1 0x80 DUP6 ADD MSTORE PUSH2 0x12EC DUP5 MLOAD CALLVALUE EQ PUSH2 0x249A JUMP JUMPDEST CALLER PUSH1 0x0 SWAP1 DUP2 MSTORE PUSH1 0x6 PUSH1 0x20 SWAP1 DUP2 MSTORE PUSH1 0x40 DUP1 DUP4 KECCAK256 DUP9 DUP5 MSTORE SWAP1 SWAP2 MSTORE SWAP1 KECCAK256 SLOAD PUSH2 0xFD4 SWAP1 TIMESTAMP LT PUSH2 0xF77 JUMP JUMPDEST SWAP2 MLOAD SWAP1 PUSH1 0x40 MLOAD PUSH2 0x1321 DUP2 PUSH2 0x21C1 JUMP JUMPDEST DUP4 DUP2 MSTORE DUP2 DUP2 ADD SWAP3 DUP4 MSTORE PUSH1 0x40 DUP2 ADD SWAP3 PUSH1 0x0 DUP5 MSTORE PUSH1 0x60 DUP3 ADD SWAP4 PUSH1 0x0 DUP6 MSTORE PUSH1 0x80 DUP4 ADD SWAP1 PUSH1 0x0 DUP3 MSTORE PUSH1 0xA0 DUP5 ADD SWAP3 PUSH1 0x0 DUP5 MSTORE CALLER PUSH1 0x0 MSTORE PUSH1 0x6 DUP7 MSTORE PUSH1 0x40 PUSH1 0x0 KECCAK256 DUP10 PUSH1 0x0 MSTORE DUP7 MSTORE PUSH1 0x40 PUSH1 0x0 KECCAK256 SWAP5 MLOAD DUP6 SSTORE MLOAD PUSH1 0x1 DUP6 ADD SSTORE MLOAD PUSH1 0x2 DUP5 ADD SSTORE PUSH2 0x1393 PUSH1 0x3 DUP5 ADD SWAP6 MLOAD ISZERO ISZERO DUP7 SWAP1 PUSH1 0xFF DUP1 NOT DUP4 SLOAD AND SWAP2 ISZERO ISZERO AND OR SWAP1 SSTORE JUMP JUMPDEST MLOAD SWAP1 PUSH1 0x2 DUP3 LT ISZERO PUSH2 0x10AA JUMPI PUSH2 0x1074 PUSH1 0x4 SWAP3 PUSH1 0x0 SWAP7 PUSH2 0x25B6 JUMP JUMPDEST POP CALLVALUE PUSH2 0x353 JUMPI DUP1 PUSH1 0x3 NOT CALLDATASIZE ADD SLT PUSH2 0x353 JUMPI SLOAD PUSH1 0x40 MLOAD PUSH1 0x1 PUSH1 0x1 PUSH1 0xA0 SHL SUB SWAP1 SWAP2 AND DUP2 MSTORE PUSH1 0x20 SWAP1 RETURN JUMPDEST POP CALLVALUE PUSH2 0x353 JUMPI PUSH1 0x40 CALLDATASIZE PUSH1 0x3 NOT ADD SLT PUSH2 0x353 JUMPI PUSH2 0x13ED PUSH2 0x2139 JUMP JUMPDEST PUSH1 0x24 CALLDATALOAD SWAP1 PUSH2 0x13FE PUSH1 0x1 SLOAD DUP4 LT PUSH2 0x2423 JUMP JUMPDEST DUP2 DUP4 MSTORE PUSH1 0x20 SWAP1 PUSH1 0x5 DUP3 MSTORE PUSH2 0x141B PUSH1 0xFF PUSH1 0x4 PUSH1 0x40 DUP8 KECCAK256 ADD SLOAD AND PUSH2 0x245E JUMP JUMPDEST PUSH1 0x1 PUSH1 0x1 PUSH1 0xA0 SHL SUB AND DUP1 DUP5 MSTORE PUSH1 0x6 DUP3 MSTORE PUSH1 0x40 DUP1 DUP6 KECCAK256 DUP5 DUP7 MSTORE DUP4 MSTORE DUP5 KECCAK256 PUSH1 0x3 DUP2 ADD DUP1 SLOAD SWAP3 SWAP4 SWAP3 SWAP1 SWAP2 PUSH1 0xFF DUP3 AND ISZERO PUSH2 0x1699 JUMPI SLOAD TIMESTAMP LT PUSH2 0x1662 JUMPI DUP5 DUP7 MSTORE PUSH1 0x5 DUP4 MSTORE DUP6 PUSH1 0x40 DUP2 KECCAK256 SWAP2 PUSH1 0xFF PUSH1 0x4 PUSH1 0x40 MLOAD SWAP5 PUSH2 0x1470 DUP7 PUSH2 0x2190 JUMP JUMPDEST DUP1 SLOAD DUP7 MSTORE PUSH1 0x1 DUP2 ADD SLOAD DUP9 DUP8 ADD MSTORE PUSH1 0x2 DUP2 ADD SLOAD PUSH1 0x40 DUP8 ADD MSTORE PUSH1 0x40 MLOAD PUSH2 0x149B DUP2 PUSH2 0x21C DUP2 PUSH1 0x3 DUP7 ADD PUSH2 0x2330 JUMP JUMPDEST PUSH1 0x60 DUP8 ADD MSTORE ADD SLOAD AND ISZERO ISZERO PUSH1 0x80 DUP5 ADD MSTORE ADDRESS EXTCODESIZE ISZERO PUSH2 0x2F0 JUMPI PUSH2 0x14F9 SWAP3 PUSH2 0x14E8 SWAP2 PUSH1 0x40 MLOAD SWAP5 DUP6 SWAP4 DUP5 SWAP4 PUSH4 0x498556ED PUSH1 0xE0 SHL DUP6 MSTORE DUP11 PUSH1 0x4 DUP7 ADD MSTORE DUP12 PUSH1 0x24 DUP7 ADD MSTORE PUSH1 0x80 PUSH1 0x44 DUP7 ADD MSTORE PUSH1 0x84 DUP6 ADD SWAP1 PUSH2 0x20F9 JUMP JUMPDEST SWAP2 PUSH1 0xFF PUSH1 0x64 DUP6 ADD SWAP2 PUSH1 0x8 SHR AND PUSH2 0x214F JUMP JUMPDEST SUB DUP2 DUP4 ADDRESS GAS CALL SWAP1 DUP2 PUSH2 0x1633 JUMPI JUMPDEST POP PUSH2 0x15F8 JUMPI PUSH1 0x1 DUP6 PUSH1 0x3 RETURNDATASIZE GT PUSH2 0x15E8 JUMPI JUMPDEST PUSH4 0x8C379A0 EQ PUSH2 0x1587 JUMPI JUMPDEST PUSH2 0x152E JUMPI JUMPDEST POP POP POP POP DUP1 RETURN JUMPDEST PUSH32 0xB47A7B0B93A5BE9467E03FDD9B623F28A657EF25D0B96710A9B8AB60144ED8EE SWAP2 PUSH1 0x60 SWAP2 PUSH1 0xFF NOT DUP2 SLOAD AND SWAP1 SSTORE PUSH1 0xD PUSH1 0x40 MLOAD SWAP2 DUP1 DUP4 MSTORE DUP3 ADD MSTORE PUSH13 0x2AB735B737BBB71032B93937B9 PUSH1 0x99 SHL PUSH1 0x40 DUP3 ADD MSTORE LOG3 CODESIZE DUP1 DUP1 DUP1 PUSH2 0x1527 JUMP JUMPDEST PUSH2 0x158F PUSH2 0x25D5 JUMP JUMPDEST DUP1 PUSH2 0x159B JUMPI JUMPDEST POP PUSH2 0x1522 JUMP JUMPDEST SWAP1 POP DUP5 DUP5 PUSH32 0xB47A7B0B93A5BE9467E03FDD9B623F28A657EF25D0B96710A9B8AB60144ED8EE PUSH2 0x15DF DUP10 SWAP5 PUSH1 0xFF NOT DUP8 SLOAD AND DUP8 SSTORE PUSH1 0x40 MLOAD SWAP2 DUP3 SWAP2 DUP10 DUP4 MSTORE DUP10 DUP4 ADD SWAP1 PUSH2 0x20B9 JUMP JUMPDEST SUB SWAP1 LOG3 CODESIZE PUSH2 0x1595 JUMP JUMPDEST POP PUSH1 0x4 DUP7 DUP1 RETURNDATACOPY DUP6 MLOAD PUSH1 0xE0 SHR PUSH2 0x1517 JUMP JUMPDEST SWAP1 PUSH1 0xFF PUSH32 0x1BD3747AFF39BAA2D53E1CF455D6C63DB654603889F04E4A959218C9C3C9BC24 SWAP3 SLOAD PUSH1 0x8 SHR AND PUSH2 0x162F PUSH1 0x40 MLOAD DUP1 SWAP3 PUSH2 0x214F JUMP JUMPDEST LOG3 DUP1 RETURN JUMPDEST PUSH1 0x1 PUSH1 0x1 PUSH1 0x40 SHL SUB DUP2 SWAP8 SWAP3 SWAP8 GT PUSH2 0x164E JUMPI PUSH1 0x40 MSTORE SWAP5 CODESIZE PUSH2 0x1506 JUMP JUMPDEST PUSH4 0x4E487B71 PUSH1 0xE0 SHL DUP3 MSTORE PUSH1 0x41 PUSH1 0x4 MSTORE PUSH1 0x24 DUP3 REVERT JUMPDEST PUSH1 0x40 MLOAD PUSH3 0x461BCD PUSH1 0xE5 SHL DUP2 MSTORE PUSH1 0x4 DUP2 ADD DUP5 SWAP1 MSTORE PUSH1 0xF PUSH1 0x24 DUP3 ADD MSTORE PUSH15 0x139BDD081E595D08195E1C1A5C9959 PUSH1 0x8A SHL PUSH1 0x44 DUP3 ADD MSTORE PUSH1 0x64 SWAP1 REVERT JUMPDEST PUSH1 0x40 MLOAD PUSH3 0x461BCD PUSH1 0xE5 SHL DUP2 MSTORE PUSH1 0x4 DUP2 ADD DUP6 SWAP1 MSTORE PUSH1 0x18 PUSH1 0x24 DUP3 ADD MSTORE PUSH32 0x4175746F2D72656E6577616C206E6F7420656E61626C65640000000000000000 PUSH1 0x44 DUP3 ADD MSTORE PUSH1 0x64 SWAP1 REVERT JUMPDEST POP CALLVALUE PUSH2 0x353 JUMPI PUSH1 0x20 CALLDATASIZE PUSH1 0x3 NOT ADD SLT PUSH2 0x353 JUMPI PUSH1 0x4 CALLDATALOAD PUSH2 0x1707 PUSH1 0x1 DUP1 PUSH1 0xA0 SHL SUB DUP4 SLOAD AND CALLER EQ PUSH2 0x23C6 JUMP JUMPDEST PUSH2 0x1714 PUSH1 0x1 SLOAD DUP3 LT PUSH2 0x2423 JUMP JUMPDEST DUP2 MSTORE PUSH1 0x5 PUSH1 0x20 MSTORE PUSH1 0x40 DUP2 KECCAK256 PUSH1 0x4 ADD DUP1 SLOAD PUSH1 0xFF DUP2 DUP2 AND ISZERO AND PUSH1 0xFF NOT SWAP1 SWAP2 AND OR SWAP1 SSTORE DUP1 RETURN JUMPDEST POP CALLVALUE PUSH2 0x353 JUMPI PUSH1 0x20 CALLDATASIZE PUSH1 0x3 NOT ADD SLT PUSH2 0x353 JUMPI PUSH1 0x4 CALLDATALOAD SWAP1 PUSH1 0x1 PUSH1 0x1 PUSH1 0x40 SHL SUB DUP3 GT PUSH2 0x353 JUMPI PUSH1 0x20 PUSH2 0x1773 PUSH2 0x176D CALLDATASIZE PUSH1 0x4 DUP7 ADD PUSH2 0x224F JUMP JUMPDEST SWAP1 PUSH2 0x2907 JUMP JUMPDEST PUSH1 0x40 MLOAD SWAP1 DUP2 MSTORE RETURN JUMPDEST POP CALLVALUE PUSH2 0x353 JUMPI DUP1 PUSH1 0x3 NOT CALLDATASIZE ADD SLT PUSH2 0x353 JUMPI PUSH1 0x20 SELFBALANCE PUSH1 0x40 MLOAD SWAP1 DUP2 MSTORE RETURN JUMPDEST POP CALLVALUE PUSH2 0x353 JUMPI PUSH1 0x40 CALLDATASIZE PUSH1 0x3 NOT ADD SLT PUSH2 0x353 JUMPI PUSH1 0xC0 SWAP1 PUSH1 0x40 SWAP1 PUSH1 0x1 PUSH1 0x1 PUSH1 0xA0 SHL SUB PUSH2 0x17BF PUSH2 0x2139 JUMP JUMPDEST AND DUP2 MSTORE PUSH1 0x6 PUSH1 0x20 MSTORE DUP2 DUP2 KECCAK256 PUSH1 0x24 CALLDATALOAD DUP3 MSTORE PUSH1 0x20 MSTORE KECCAK256 DUP1 SLOAD SWAP1 PUSH2 0x181A PUSH1 0x1 DUP3 ADD SLOAD SWAP2 PUSH1 0x2 DUP2 ADD SLOAD PUSH1 0x4 PUSH1 0x3 DUP4 ADD SLOAD SWAP3 ADD SLOAD SWAP4 PUSH1 0x40 MLOAD SWAP6 DUP7 MSTORE PUSH1 0x20 DUP7 ADD MSTORE PUSH1 0x40 DUP6 ADD MSTORE PUSH1 0xFF DUP2 AND ISZERO ISZERO PUSH1 0x60 DUP6 ADD MSTORE PUSH1 0xFF PUSH1 0x80 DUP6 ADD SWAP2 PUSH1 0x8 SHR AND PUSH2 0x214F JUMP JUMPDEST PUSH1 0xA0 DUP3 ADD MSTORE RETURN JUMPDEST POP CALLVALUE PUSH2 0x353 JUMPI PUSH1 0x3 NOT PUSH1 0x80 CALLDATASIZE DUP3 ADD SLT PUSH2 0x2F0 JUMPI PUSH2 0x183C PUSH2 0x2139 JUMP JUMPDEST SWAP1 PUSH1 0x24 CALLDATALOAD SWAP2 PUSH1 0x44 CALLDATALOAD SWAP2 PUSH1 0x1 PUSH1 0x1 PUSH1 0x40 SHL SUB SWAP1 DUP2 DUP5 GT PUSH2 0x1B32 JUMPI PUSH1 0xA0 SWAP1 DUP5 CALLDATASIZE SUB ADD SLT PUSH2 0x1B2E JUMPI PUSH1 0x40 MLOAD SWAP1 PUSH2 0x186E DUP3 PUSH2 0x2190 JUMP JUMPDEST DUP4 PUSH1 0x4 ADD CALLDATALOAD DUP3 MSTORE PUSH1 0x20 SWAP1 DUP2 DUP4 ADD SWAP5 PUSH1 0x24 DUP2 ADD CALLDATALOAD DUP7 MSTORE PUSH1 0x40 DUP5 ADD SWAP2 PUSH1 0x44 DUP3 ADD CALLDATALOAD DUP4 MSTORE PUSH1 0x64 DUP3 ADD CALLDATALOAD SWAP1 DUP2 GT PUSH2 0x1B2A JUMPI DUP2 ADD SWAP1 CALLDATASIZE PUSH1 0x23 DUP4 ADD SLT ISZERO PUSH2 0x1B2A JUMPI PUSH2 0x18BF PUSH1 0x84 SWAP3 CALLDATASIZE SWAP1 PUSH1 0x24 PUSH1 0x4 DUP3 ADD CALLDATALOAD SWAP2 ADD PUSH2 0x2218 JUMP JUMPDEST PUSH1 0x60 DUP7 ADD MSTORE ADD CALLDATALOAD DUP1 ISZERO ISZERO DUP2 SUB PUSH2 0x1B26 JUMPI PUSH1 0x80 DUP5 ADD MSTORE PUSH1 0x64 CALLDATALOAD SWAP3 PUSH1 0x2 DUP5 LT ISZERO PUSH2 0x1B26 JUMPI ADDRESS CALLER SUB PUSH2 0x1AF1 JUMPI DUP4 ISZERO SWAP5 DUP9 DUP7 ISZERO PUSH2 0x1A40 JUMPI POP PUSH1 0x1 PUSH1 0x1 PUSH1 0xA0 SHL SUB DUP2 AND DUP1 DUP11 MSTORE PUSH1 0x4 DUP6 MSTORE PUSH1 0x40 DUP11 KECCAK256 SLOAD DUP4 MLOAD GT PUSH2 0x19FB JUMPI SWAP3 DUP3 PUSH32 0xC8AA89700284569CB66A715AC234091AA3815474781F17DB996BF092FEBD2FEF SWAP8 SWAP6 SWAP3 PUSH2 0x19C4 SWAP6 PUSH2 0x1955 PUSH1 0x40 DUP15 PUSH1 0x60 SWAP12 SWAP9 MLOAD SWAP4 DUP2 MSTORE PUSH1 0x4 DUP9 MSTORE KECCAK256 SWAP2 DUP3 SLOAD PUSH2 0x2646 JUMP JUMPDEST SWAP1 SSTORE JUMPDEST PUSH1 0x1 PUSH1 0x1 PUSH1 0xA0 SHL SUB AND DUP1 DUP13 MSTORE PUSH1 0x6 DUP5 MSTORE PUSH1 0x40 DUP1 DUP14 KECCAK256 DUP13 DUP15 MSTORE DUP6 MSTORE DUP13 KECCAK256 DUP1 SLOAD SWAP2 SWAP11 SWAP1 SWAP4 SWAP1 SWAP2 TIMESTAMP DUP2 GT ISZERO PUSH2 0x19E9 JUMPI PUSH2 0x198F SWAP2 MLOAD SWAP1 PUSH2 0x2694 JUMP JUMPDEST SWAP7 JUMPDEST DUP8 DUP5 SSTORE DUP13 PUSH1 0x4 DUP6 ADD SSTORE PUSH1 0x0 EQ PUSH2 0x19CF JUMPI POP PUSH1 0x1 PUSH2 0x19B3 SWAP2 MLOAD SWAP3 ADD SWAP2 DUP3 SLOAD PUSH2 0x2694 JUMP JUMPDEST SWAP1 SSTORE JUMPDEST PUSH1 0x40 MLOAD SWAP4 DUP5 MSTORE DUP4 ADD SWAP1 PUSH2 0x214F JUMP JUMPDEST PUSH1 0x1 PUSH1 0x40 DUP3 ADD MSTORE LOG3 DUP1 RETURN JUMPDEST PUSH2 0x19E2 SWAP2 POP PUSH1 0x2 SWAP1 MLOAD SWAP3 ADD SWAP2 DUP3 SLOAD PUSH2 0x2694 JUMP JUMPDEST SWAP1 SSTORE PUSH2 0x19B6 JUMP JUMPDEST POP PUSH2 0x19F5 SWAP1 MLOAD TIMESTAMP PUSH2 0x2694 JUMP JUMPDEST SWAP7 PUSH2 0x1991 JUMP JUMPDEST PUSH1 0x40 MLOAD PUSH3 0x461BCD PUSH1 0xE5 SHL DUP2 MSTORE PUSH1 0x4 DUP2 ADD DUP7 SWAP1 MSTORE PUSH1 0x18 PUSH1 0x24 DUP3 ADD MSTORE PUSH32 0x496E73756666696369656E74204554482062616C616E63650000000000000000 PUSH1 0x44 DUP3 ADD MSTORE PUSH1 0x64 SWAP1 REVERT JUMPDEST PUSH1 0x2 SLOAD DUP9 MLOAD PUSH1 0x40 MLOAD PUSH4 0x23B872DD PUSH1 0xE0 SHL DUP2 MSTORE PUSH1 0x1 PUSH1 0x1 PUSH1 0xA0 SHL SUB DUP6 DUP2 AND PUSH1 0x4 DUP4 ADD MSTORE ADDRESS PUSH1 0x24 DUP4 ADD MSTORE PUSH1 0x44 DUP3 ADD SWAP3 SWAP1 SWAP3 MSTORE SWAP3 SWAP9 SWAP4 SWAP8 SWAP4 SWAP7 SWAP3 SWAP6 SWAP4 SWAP5 SWAP3 SWAP4 SWAP3 SWAP2 DUP5 SWAP2 DUP8 SWAP2 PUSH1 0x64 SWAP2 DUP4 SWAP2 DUP14 SWAP2 AND GAS CALL SWAP7 DUP8 ISZERO PUSH2 0x1AE6 JUMPI PUSH2 0x1ACA PUSH1 0x60 SWAP9 PUSH2 0x19C4 SWAP8 PUSH32 0xC8AA89700284569CB66A715AC234091AA3815474781F17DB996BF092FEBD2FEF SWAP12 SWAP2 PUSH2 0x1ACF JUMPI POP PUSH2 0x2536 JUMP JUMPDEST PUSH2 0x1958 JUMP JUMPDEST PUSH2 0x685 SWAP2 POP DUP7 RETURNDATASIZE DUP9 GT PUSH2 0x68B JUMPI PUSH2 0x67D DUP2 DUP4 PUSH2 0x21DC JUMP JUMPDEST PUSH1 0x40 MLOAD RETURNDATASIZE DUP11 DUP3 RETURNDATACOPY RETURNDATASIZE SWAP1 REVERT JUMPDEST PUSH1 0x40 MLOAD PUSH3 0x461BCD PUSH1 0xE5 SHL DUP2 MSTORE PUSH1 0x4 DUP2 ADD DUP5 SWAP1 MSTORE PUSH1 0xD PUSH1 0x24 DUP3 ADD MSTORE PUSH13 0x496E7465726E616C206F6E6C79 PUSH1 0x98 SHL PUSH1 0x44 DUP3 ADD MSTORE PUSH1 0x64 SWAP1 REVERT JUMPDEST DUP8 DUP1 REVERT JUMPDEST DUP9 DUP1 REVERT JUMPDEST DUP5 DUP1 REVERT JUMPDEST DUP6 DUP1 REVERT JUMPDEST POP CALLVALUE PUSH2 0x353 JUMPI DUP1 PUSH1 0x3 NOT CALLDATASIZE ADD SLT PUSH2 0x353 JUMPI PUSH1 0x1 SLOAD PUSH2 0x1B53 DUP2 PUSH2 0x2766 JUMP JUMPDEST DUP3 SWAP2 DUP4 JUMPDEST DUP2 DUP2 LT PUSH2 0x1BA6 JUMPI POP POP PUSH2 0x1B69 DUP3 PUSH2 0x2766 JUMP JUMPDEST SWAP3 JUMPDEST DUP3 DUP2 LT PUSH2 0x1B88 JUMPI PUSH1 0x40 MLOAD PUSH1 0x20 DUP1 DUP3 MSTORE DUP2 SWAP1 PUSH2 0x72C SWAP1 DUP3 ADD DUP8 PUSH2 0x215C JUMP JUMPDEST DUP1 PUSH2 0x1B96 PUSH2 0x1BA1 SWAP3 DUP5 PUSH2 0x27A4 JUMP JUMPDEST MLOAD PUSH2 0x785 DUP3 DUP8 PUSH2 0x27A4 JUMP JUMPDEST PUSH2 0x1B6B JUMP JUMPDEST DUP1 DUP6 MSTORE PUSH1 0x5 PUSH1 0x20 MSTORE PUSH1 0xFF PUSH1 0x4 PUSH1 0x40 DUP8 KECCAK256 ADD SLOAD AND PUSH2 0x1BCC JUMPI JUMPDEST PUSH2 0x1BC7 SWAP1 PUSH2 0x23FE JUMP JUMPDEST PUSH2 0x1B57 JUMP JUMPDEST SWAP3 PUSH2 0x1BDF DUP2 DUP6 PUSH2 0x785 PUSH2 0x1BC7 SWAP5 DUP8 PUSH2 0x27A4 JUMP JUMPDEST SWAP4 SWAP1 POP PUSH2 0x1BBE JUMP JUMPDEST POP CALLVALUE PUSH2 0x353 JUMPI PUSH1 0x20 CALLDATASIZE PUSH1 0x3 NOT ADD SLT PUSH2 0x353 JUMPI PUSH1 0x20 SWAP1 PUSH1 0x40 SWAP1 PUSH1 0x1 PUSH1 0x1 PUSH1 0xA0 SHL SUB PUSH2 0x1C0F PUSH2 0x2139 JUMP JUMPDEST AND DUP2 MSTORE PUSH1 0x4 DUP4 MSTORE KECCAK256 SLOAD PUSH1 0x40 MLOAD SWAP1 DUP2 MSTORE RETURN JUMPDEST POP CALLVALUE PUSH2 0x353 JUMPI PUSH1 0x40 CALLDATASIZE PUSH1 0x3 NOT ADD SLT PUSH2 0x353 JUMPI PUSH2 0x1C3A PUSH2 0x2139 JUMP JUMPDEST PUSH1 0x1 PUSH1 0x1 PUSH1 0xA0 SHL SUB DUP2 AND DUP3 MSTORE PUSH1 0x6 PUSH1 0x20 SWAP1 DUP2 MSTORE PUSH1 0x40 DUP1 DUP5 KECCAK256 PUSH1 0x24 CALLDATALOAD DUP1 DUP7 MSTORE SWAP3 MSTORE DUP1 DUP5 KECCAK256 SWAP1 MLOAD SWAP2 SWAP3 PUSH2 0x1C6A DUP4 PUSH2 0x21C1 JUMP JUMPDEST DUP2 SLOAD DUP4 MSTORE PUSH1 0x1 DUP3 ADD SLOAD SWAP4 PUSH1 0x20 DUP5 ADD SWAP5 DUP6 MSTORE PUSH2 0x1CE8 PUSH1 0x2 DUP5 ADD SLOAD SWAP2 PUSH1 0x40 DUP7 ADD SWAP3 DUP4 MSTORE PUSH1 0x3 DUP6 ADD SLOAD SWAP6 PUSH1 0x4 PUSH1 0x60 DUP3 ADD SWAP7 PUSH1 0xFF DUP10 AND ISZERO ISZERO DUP9 MSTORE PUSH2 0x1CB4 PUSH1 0xFF PUSH1 0x80 DUP6 ADD SWAP11 PUSH1 0x8 SHR AND DUP11 PUSH2 0x2798 JUMP JUMPDEST ADD SLOAD PUSH1 0xA0 DUP3 ADD MSTORE MLOAD SWAP7 MLOAD SWAP3 MLOAD SWAP4 PUSH1 0x1 DUP1 PUSH1 0xA0 SHL SUB AND PUSH1 0x0 MSTORE PUSH1 0x6 PUSH1 0x20 MSTORE PUSH1 0x40 PUSH1 0x0 KECCAK256 SWAP1 PUSH1 0x0 MSTORE PUSH1 0x20 MSTORE PUSH1 0x40 PUSH1 0x0 KECCAK256 SLOAD TIMESTAMP LT SWAP1 JUMP JUMPDEST SWAP3 MLOAD ISZERO ISZERO SWAP4 MLOAD SWAP6 PUSH1 0x2 DUP8 LT ISZERO PUSH2 0x1D2B JUMPI POP SWAP2 PUSH2 0x1D29 SWAP4 SWAP2 PUSH1 0xC0 SWAP7 SWAP4 PUSH1 0x40 MLOAD SWAP7 DUP8 MSTORE PUSH1 0x20 DUP8 ADD MSTORE PUSH1 0x40 DUP7 ADD MSTORE ISZERO ISZERO PUSH1 0x60 DUP6 ADD MSTORE PUSH1 0x80 DUP5 ADD MSTORE PUSH1 0xA0 DUP4 ADD SWAP1 PUSH2 0x214F JUMP JUMPDEST RETURN JUMPDEST PUSH4 0x4E487B71 PUSH1 0xE0 SHL DUP2 MSTORE PUSH1 0x21 PUSH1 0x4 MSTORE PUSH1 0x24 SWAP1 REVERT JUMPDEST POP CALLVALUE PUSH2 0x353 JUMPI DUP1 PUSH1 0x3 NOT CALLDATASIZE ADD SLT PUSH2 0x353 JUMPI DUP1 SLOAD PUSH1 0x1 PUSH1 0x1 PUSH1 0xA0 SHL SUB SWAP1 DUP2 AND SWAP1 PUSH2 0x1D69 CALLER DUP4 EQ PUSH2 0x23C6 JUMP JUMPDEST PUSH1 0x2 SLOAD AND PUSH1 0x40 MLOAD PUSH4 0x70A08231 PUSH1 0xE0 SHL DUP2 MSTORE ADDRESS PUSH1 0x4 DUP3 ADD MSTORE PUSH1 0x20 SWAP3 DUP4 DUP3 PUSH1 0x24 DUP2 DUP7 GAS STATICCALL SWAP2 DUP3 ISZERO PUSH2 0x1EAB JUMPI DUP6 SWAP3 PUSH2 0x1E7C JUMPI JUMPDEST POP DUP2 ISZERO PUSH2 0x1E41 JUMPI SWAP1 PUSH1 0x44 DUP5 SWAP3 DUP7 PUSH1 0x40 MLOAD SWAP6 DUP7 SWAP5 DUP6 SWAP4 PUSH4 0xA9059CBB PUSH1 0xE0 SHL DUP6 MSTORE PUSH1 0x4 DUP6 ADD MSTORE PUSH1 0x24 DUP5 ADD MSTORE GAS CALL SWAP1 DUP2 ISZERO PUSH2 0x1E36 JUMPI DUP4 SWAP2 PUSH2 0x1E19 JUMPI JUMPDEST POP ISZERO PUSH2 0x1DDC JUMPI POP DUP1 RETURN JUMPDEST PUSH1 0x64 SWAP1 PUSH1 0x40 MLOAD SWAP1 PUSH3 0x461BCD PUSH1 0xE5 SHL DUP3 MSTORE PUSH1 0x4 DUP3 ADD MSTORE PUSH1 0x16 PUSH1 0x24 DUP3 ADD MSTORE PUSH22 0x1554D115081DDA5D1A191C985DD85B0819985A5B1959 PUSH1 0x52 SHL PUSH1 0x44 DUP3 ADD MSTORE REVERT JUMPDEST PUSH2 0x1E30 SWAP2 POP DUP3 RETURNDATASIZE DUP5 GT PUSH2 0x68B JUMPI PUSH2 0x67D DUP2 DUP4 PUSH2 0x21DC JUMP JUMPDEST CODESIZE PUSH2 0x1DD2 JUMP JUMPDEST PUSH1 0x40 MLOAD RETURNDATASIZE DUP6 DUP3 RETURNDATACOPY RETURNDATASIZE SWAP1 REVERT JUMPDEST PUSH1 0x40 MLOAD PUSH3 0x461BCD PUSH1 0xE5 SHL DUP2 MSTORE PUSH1 0x4 DUP2 ADD DUP6 SWAP1 MSTORE PUSH1 0x13 PUSH1 0x24 DUP3 ADD MSTORE PUSH19 0x4E6F205553445420746F207769746864726177 PUSH1 0x68 SHL PUSH1 0x44 DUP3 ADD MSTORE PUSH1 0x64 SWAP1 REVERT JUMPDEST SWAP1 SWAP2 POP DUP4 DUP2 DUP2 RETURNDATASIZE DUP4 GT PUSH2 0x1EA4 JUMPI JUMPDEST PUSH2 0x1E94 DUP2 DUP4 PUSH2 0x21DC JUMP JUMPDEST DUP2 ADD SUB SLT PUSH2 0x1B2E JUMPI MLOAD SWAP1 CODESIZE PUSH2 0x1D99 JUMP JUMPDEST POP RETURNDATASIZE PUSH2 0x1E8A JUMP JUMPDEST PUSH1 0x40 MLOAD RETURNDATASIZE DUP8 DUP3 RETURNDATACOPY RETURNDATASIZE SWAP1 REVERT JUMPDEST POP CALLVALUE PUSH2 0x353 JUMPI DUP1 PUSH1 0x3 NOT CALLDATASIZE ADD SLT PUSH2 0x353 JUMPI PUSH1 0x20 PUSH1 0x3 SLOAD PUSH1 0x40 MLOAD SWAP1 DUP2 MSTORE RETURN JUMPDEST POP CALLVALUE PUSH2 0x353 JUMPI PUSH1 0x20 CALLDATASIZE PUSH1 0x3 NOT ADD SLT PUSH2 0x353 JUMPI PUSH1 0x4 CALLDATALOAD CALLER DUP3 MSTORE PUSH1 0x6 PUSH1 0x20 MSTORE PUSH1 0x40 DUP3 KECCAK256 DUP2 DUP4 MSTORE PUSH1 0x20 MSTORE PUSH1 0x3 PUSH1 0x40 DUP4 KECCAK256 PUSH2 0x1F0D DUP2 SLOAD ISZERO ISZERO PUSH2 0x2579 JUMP JUMPDEST ADD DUP1 SLOAD PUSH1 0xFF NOT AND SWAP1 SSTORE CALLER PUSH32 0xD28F56D53BF660CEE0F022989C4C056736272E2E1E389ED3FD1C7562D62A069D DUP4 DUP1 LOG3 DUP1 RETURN JUMPDEST POP CALLVALUE PUSH2 0x353 JUMPI PUSH1 0x20 SWAP1 DUP2 PUSH1 0x3 NOT CALLDATASIZE ADD SLT PUSH2 0x353 JUMPI PUSH1 0x40 SWAP1 PUSH1 0x4 CALLDATALOAD DUP2 PUSH1 0x80 DUP5 MLOAD PUSH2 0x1F66 DUP2 PUSH2 0x2190 JUMP JUMPDEST DUP3 DUP2 MSTORE DUP3 DUP8 DUP3 ADD MSTORE DUP3 DUP7 DUP3 ADD MSTORE PUSH1 0x60 DUP1 DUP3 ADD MSTORE ADD MSTORE PUSH2 0x1F88 PUSH1 0x1 SLOAD DUP3 LT PUSH2 0x2423 JUMP JUMPDEST DUP2 MSTORE PUSH1 0x5 DUP4 MSTORE KECCAK256 SWAP1 PUSH1 0xFF PUSH1 0x4 PUSH1 0x40 MLOAD SWAP4 PUSH2 0x1FA1 DUP6 PUSH2 0x2190 JUMP JUMPDEST DUP1 SLOAD DUP6 MSTORE PUSH1 0x1 DUP2 ADD SLOAD DUP5 DUP7 ADD MSTORE PUSH1 0x2 DUP2 ADD SLOAD PUSH1 0x40 DUP7 ADD MSTORE PUSH1 0x40 MLOAD PUSH2 0x1FCC DUP2 PUSH2 0x21C DUP2 PUSH1 0x3 DUP7 ADD PUSH2 0x2330 JUMP JUMPDEST PUSH1 0x60 DUP7 ADD MSTORE ADD SLOAD AND ISZERO ISZERO PUSH1 0x80 DUP4 ADD MSTORE PUSH2 0x72C PUSH1 0x40 MLOAD SWAP3 DUP3 DUP5 SWAP4 DUP5 MSTORE DUP4 ADD SWAP1 PUSH2 0x20F9 JUMP JUMPDEST SWAP1 POP CALLVALUE PUSH2 0x2F0 JUMPI PUSH1 0x20 CALLDATASIZE PUSH1 0x3 NOT ADD SLT PUSH2 0x2F0 JUMPI PUSH1 0x4 CALLDATALOAD SWAP1 CALLER DUP4 MSTORE PUSH1 0x4 PUSH1 0x20 MSTORE DUP2 PUSH1 0x40 DUP5 KECCAK256 SLOAD LT PUSH2 0x2080 JUMPI POP PUSH2 0x2025 DUP2 ISZERO ISZERO PUSH2 0x2653 JUMP JUMPDEST CALLER DUP3 MSTORE PUSH1 0x4 PUSH1 0x20 MSTORE PUSH1 0x40 DUP3 KECCAK256 PUSH2 0x203C DUP3 DUP3 SLOAD PUSH2 0x2646 JUMP JUMPDEST SWAP1 SSTORE PUSH2 0x2051 DUP3 DUP1 DUP1 DUP1 DUP6 CALLER GAS CALL PUSH2 0x49B PUSH2 0x26A1 JUMP JUMPDEST PUSH1 0x40 MLOAD SWAP1 DUP2 MSTORE PUSH32 0x94B2DE810873337ED265C5F8CF98C9CFFEFA06B8607F9A2F1FBAEBDFBCFBEF1C PUSH1 0x20 CALLER SWAP3 LOG2 DUP1 RETURN JUMPDEST PUSH3 0x461BCD PUSH1 0xE5 SHL DUP2 MSTORE PUSH1 0x20 PUSH1 0x4 DUP3 ADD MSTORE PUSH1 0x14 PUSH1 0x24 DUP3 ADD MSTORE PUSH20 0x496E73756666696369656E742062616C616E6365 PUSH1 0x60 SHL PUSH1 0x44 DUP3 ADD MSTORE PUSH1 0x64 SWAP1 REVERT JUMPDEST SWAP2 SWAP1 DUP3 MLOAD SWAP3 DUP4 DUP3 MSTORE PUSH1 0x0 JUMPDEST DUP5 DUP2 LT PUSH2 0x20E5 JUMPI POP POP DUP3 PUSH1 0x0 PUSH1 0x20 DUP1 SWAP5 SWAP6 DUP5 ADD ADD MSTORE PUSH1 0x1F DUP1 NOT SWAP2 ADD AND ADD ADD SWAP1 JUMP JUMPDEST PUSH1 0x20 DUP2 DUP4 ADD DUP2 ADD MLOAD DUP5 DUP4 ADD DUP3 ADD MSTORE ADD PUSH2 0x20C4 JUMP JUMPDEST SWAP1 DUP2 MLOAD DUP2 MSTORE PUSH1 0x20 DUP3 ADD MLOAD PUSH1 0x20 DUP3 ADD MSTORE PUSH1 0x40 DUP3 ADD MLOAD PUSH1 0x40 DUP3 ADD MSTORE PUSH1 0x80 DUP1 PUSH2 0x212E PUSH1 0x60 DUP6 ADD MLOAD PUSH1 0xA0 PUSH1 0x60 DUP7 ADD MSTORE PUSH1 0xA0 DUP6 ADD SWAP1 PUSH2 0x20B9 JUMP JUMPDEST SWAP4 ADD MLOAD ISZERO ISZERO SWAP2 ADD MSTORE SWAP1 JUMP JUMPDEST PUSH1 0x4 CALLDATALOAD SWAP1 PUSH1 0x1 PUSH1 0x1 PUSH1 0xA0 SHL SUB DUP3 AND DUP3 SUB PUSH2 0x1231 JUMPI JUMP JUMPDEST SWAP1 PUSH1 0x2 DUP3 LT ISZERO PUSH2 0x10AA JUMPI MSTORE JUMP JUMPDEST SWAP1 DUP2 MLOAD DUP1 DUP3 MSTORE PUSH1 0x20 DUP1 DUP1 SWAP4 ADD SWAP4 ADD SWAP2 PUSH1 0x0 JUMPDEST DUP3 DUP2 LT PUSH2 0x217C JUMPI POP POP POP POP SWAP1 JUMP JUMPDEST DUP4 MLOAD DUP6 MSTORE SWAP4 DUP2 ADD SWAP4 SWAP3 DUP2 ADD SWAP3 PUSH1 0x1 ADD PUSH2 0x216E JUMP JUMPDEST PUSH1 0xA0 DUP2 ADD SWAP1 DUP2 LT PUSH1 0x1 PUSH1 0x1 PUSH1 0x40 SHL SUB DUP3 GT OR PUSH2 0x21AB JUMPI PUSH1 0x40 MSTORE JUMP JUMPDEST PUSH4 0x4E487B71 PUSH1 0xE0 SHL PUSH1 0x0 MSTORE PUSH1 0x41 PUSH1 0x4 MSTORE PUSH1 0x24 PUSH1 0x0 REVERT JUMPDEST PUSH1 0xC0 DUP2 ADD SWAP1 DUP2 LT PUSH1 0x1 PUSH1 0x1 PUSH1 0x40 SHL SUB DUP3 GT OR PUSH2 0x21AB JUMPI PUSH1 0x40 MSTORE JUMP JUMPDEST SWAP1 PUSH1 0x1F DUP1 NOT SWAP2 ADD AND DUP2 ADD SWAP1 DUP2 LT PUSH1 0x1 PUSH1 0x1 PUSH1 0x40 SHL SUB DUP3 GT OR PUSH2 0x21AB JUMPI PUSH1 0x40 MSTORE JUMP JUMPDEST PUSH1 0x1 PUSH1 0x1 PUSH1 0x40 SHL SUB DUP2 GT PUSH2 0x21AB JUMPI PUSH1 0x1F ADD PUSH1 0x1F NOT AND PUSH1 0x20 ADD SWAP1 JUMP JUMPDEST SWAP3 SWAP2 SWAP3 PUSH2 0x2224 DUP3 PUSH2 0x21FD JUMP JUMPDEST SWAP2 PUSH2 0x2232 PUSH1 0x40 MLOAD SWAP4 DUP5 PUSH2 0x21DC JUMP JUMPDEST DUP3 SWAP5 DUP2 DUP5 MSTORE DUP2 DUP4 ADD GT PUSH2 0x1231 JUMPI DUP3 DUP2 PUSH1 0x20 SWAP4 DUP5 PUSH1 0x0 SWAP7 ADD CALLDATACOPY ADD ADD MSTORE JUMP JUMPDEST SWAP2 DUP2 PUSH1 0x1F DUP5 ADD SLT ISZERO PUSH2 0x1231 JUMPI DUP3 CALLDATALOAD SWAP2 PUSH1 0x1 PUSH1 0x1 PUSH1 0x40 SHL SUB DUP4 GT PUSH2 0x1231 JUMPI PUSH1 0x20 DUP4 DUP2 DUP7 ADD SWAP6 ADD ADD GT PUSH2 0x1231 JUMPI JUMP JUMPDEST SWAP2 DUP2 PUSH1 0x1F DUP5 ADD SLT ISZERO PUSH2 0x1231 JUMPI DUP3 CALLDATALOAD SWAP2 PUSH1 0x1 PUSH1 0x1 PUSH1 0x40 SHL SUB DUP4 GT PUSH2 0x1231 JUMPI PUSH1 0x20 DUP1 DUP6 ADD SWAP5 DUP5 PUSH1 0x5 SHL ADD ADD GT PUSH2 0x1231 JUMPI JUMP JUMPDEST PUSH1 0x40 PUSH1 0x3 NOT DUP3 ADD SLT PUSH2 0x1231 JUMPI PUSH1 0x1 PUSH1 0x1 PUSH1 0x40 SHL SUB SWAP2 PUSH1 0x4 CALLDATALOAD DUP4 DUP2 GT PUSH2 0x1231 JUMPI DUP3 PUSH2 0x22D8 SWAP2 PUSH1 0x4 ADD PUSH2 0x227C JUMP JUMPDEST SWAP4 SWAP1 SWAP4 SWAP3 PUSH1 0x24 CALLDATALOAD SWAP2 DUP3 GT PUSH2 0x1231 JUMPI PUSH2 0x22F2 SWAP2 PUSH1 0x4 ADD PUSH2 0x227C JUMP JUMPDEST SWAP1 SWAP2 JUMP JUMPDEST SWAP1 PUSH1 0x1 DUP3 DUP2 SHR SWAP3 AND DUP1 ISZERO PUSH2 0x2326 JUMPI JUMPDEST PUSH1 0x20 DUP4 LT EQ PUSH2 0x2310 JUMPI JUMP JUMPDEST PUSH4 0x4E487B71 PUSH1 0xE0 SHL PUSH1 0x0 MSTORE PUSH1 0x22 PUSH1 0x4 MSTORE PUSH1 0x24 PUSH1 0x0 REVERT JUMPDEST SWAP2 PUSH1 0x7F AND SWAP2 PUSH2 0x2305 JUMP JUMPDEST SWAP1 PUSH1 0x0 SWAP3 SWAP2 DUP1 SLOAD SWAP2 PUSH2 0x2341 DUP4 PUSH2 0x22F6 JUMP JUMPDEST SWAP2 DUP3 DUP3 MSTORE PUSH1 0x1 SWAP4 DUP5 DUP2 AND SWAP1 DUP2 PUSH1 0x0 EQ PUSH2 0x23A3 JUMPI POP PUSH1 0x1 EQ PUSH2 0x2363 JUMPI JUMPDEST POP POP POP POP JUMP JUMPDEST SWAP1 SWAP2 SWAP4 SWAP5 POP PUSH1 0x0 MSTORE PUSH1 0x20 SWAP3 DUP4 PUSH1 0x0 KECCAK256 SWAP3 DUP5 PUSH1 0x0 SWAP5 JUMPDEST DUP4 DUP7 LT PUSH2 0x238F JUMPI POP POP POP POP ADD ADD SWAP1 CODESIZE DUP1 DUP1 DUP1 PUSH2 0x235D JUMP JUMPDEST DUP1 SLOAD DUP6 DUP8 ADD DUP4 ADD MSTORE SWAP5 ADD SWAP4 DUP6 SWAP1 DUP3 ADD PUSH2 0x2378 JUMP JUMPDEST SWAP3 SWAP5 POP POP POP PUSH1 0x20 SWAP4 SWAP5 POP PUSH1 0xFF NOT AND DUP4 DUP4 ADD MSTORE ISZERO ISZERO PUSH1 0x5 SHL ADD ADD SWAP1 CODESIZE DUP1 DUP1 DUP1 PUSH2 0x235D JUMP JUMPDEST ISZERO PUSH2 0x23CD JUMPI JUMP JUMPDEST PUSH1 0x40 MLOAD PUSH3 0x461BCD PUSH1 0xE5 SHL DUP2 MSTORE PUSH1 0x20 PUSH1 0x4 DUP3 ADD MSTORE PUSH1 0x9 PUSH1 0x24 DUP3 ADD MSTORE PUSH9 0x2737BA1037BBB732B9 PUSH1 0xB9 SHL PUSH1 0x44 DUP3 ADD MSTORE PUSH1 0x64 SWAP1 REVERT JUMPDEST PUSH1 0x0 NOT DUP2 EQ PUSH2 0x240D JUMPI PUSH1 0x1 ADD SWAP1 JUMP JUMPDEST PUSH4 0x4E487B71 PUSH1 0xE0 SHL PUSH1 0x0 MSTORE PUSH1 0x11 PUSH1 0x4 MSTORE PUSH1 0x24 PUSH1 0x0 REVERT JUMPDEST ISZERO PUSH2 0x242A JUMPI JUMP JUMPDEST PUSH1 0x40 MLOAD PUSH3 0x461BCD PUSH1 0xE5 SHL DUP2 MSTORE PUSH1 0x20 PUSH1 0x4 DUP3 ADD MSTORE PUSH1 0xC PUSH1 0x24 DUP3 ADD MSTORE PUSH12 0x24B73B30B634B210383630B7 PUSH1 0xA1 SHL PUSH1 0x44 DUP3 ADD MSTORE PUSH1 0x64 SWAP1 REVERT JUMPDEST ISZERO PUSH2 0x2465 JUMPI JUMP JUMPDEST PUSH1 0x40 MLOAD PUSH3 0x461BCD PUSH1 0xE5 SHL DUP2 MSTORE PUSH1 0x20 PUSH1 0x4 DUP3 ADD MSTORE PUSH1 0xD PUSH1 0x24 DUP3 ADD MSTORE PUSH13 0x506C616E20696E616374697665 PUSH1 0x98 SHL PUSH1 0x44 DUP3 ADD MSTORE PUSH1 0x64 SWAP1 REVERT JUMPDEST ISZERO PUSH2 0x24A1 JUMPI JUMP JUMPDEST PUSH1 0x40 MLOAD PUSH3 0x461BCD PUSH1 0xE5 SHL DUP2 MSTORE PUSH1 0x20 PUSH1 0x4 DUP3 ADD MSTORE PUSH1 0x14 PUSH1 0x24 DUP3 ADD MSTORE PUSH20 0x125B98DBDC9C9958DD0811551208185B5BDD5B9D PUSH1 0x62 SHL PUSH1 0x44 DUP3 ADD MSTORE PUSH1 0x64 SWAP1 REVERT JUMPDEST ISZERO PUSH2 0x24E4 JUMPI JUMP JUMPDEST PUSH1 0x40 MLOAD PUSH3 0x461BCD PUSH1 0xE5 SHL DUP2 MSTORE PUSH1 0x20 PUSH1 0x4 DUP3 ADD MSTORE PUSH1 0x12 PUSH1 0x24 DUP3 ADD MSTORE PUSH18 0x105B1C9958591E481CDD589CD8DC9A589959 PUSH1 0x72 SHL PUSH1 0x44 DUP3 ADD MSTORE PUSH1 0x64 SWAP1 REVERT JUMPDEST SWAP1 DUP2 PUSH1 0x20 SWAP2 SUB SLT PUSH2 0x1231 JUMPI MLOAD DUP1 ISZERO ISZERO DUP2 SUB PUSH2 0x1231 JUMPI SWAP1 JUMP JUMPDEST ISZERO PUSH2 0x253D JUMPI JUMP JUMPDEST PUSH1 0x40 MLOAD PUSH3 0x461BCD PUSH1 0xE5 SHL DUP2 MSTORE PUSH1 0x20 PUSH1 0x4 DUP3 ADD MSTORE PUSH1 0x14 PUSH1 0x24 DUP3 ADD MSTORE PUSH20 0x1554D115081D1C985B9CD9995C8819985A5B1959 PUSH1 0x62 SHL PUSH1 0x44 DUP3 ADD MSTORE PUSH1 0x64 SWAP1 REVERT JUMPDEST ISZERO PUSH2 0x2580 JUMPI JUMP JUMPDEST PUSH1 0x40 MLOAD PUSH3 0x461BCD PUSH1 0xE5 SHL DUP2 MSTORE PUSH1 0x20 PUSH1 0x4 DUP3 ADD MSTORE PUSH1 0xE PUSH1 0x24 DUP3 ADD MSTORE PUSH14 0x139BDD081CDD589CD8DC9A589959 PUSH1 0x92 SHL PUSH1 0x44 DUP3 ADD MSTORE PUSH1 0x64 SWAP1 REVERT JUMPDEST SWAP1 PUSH1 0x2 DUP2 LT ISZERO PUSH2 0x10AA JUMPI PUSH2 0xFF00 DUP3 SLOAD SWAP2 PUSH1 0x8 SHL AND SWAP1 PUSH2 0xFF00 NOT AND OR SWAP1 SSTORE JUMP JUMPDEST PUSH1 0x0 PUSH1 0x44 RETURNDATASIZE LT PUSH2 0x2632 JUMPI PUSH1 0x40 MLOAD PUSH1 0x3 NOT SWAP2 RETURNDATASIZE DUP4 ADD PUSH1 0x4 DUP4 RETURNDATACOPY DUP2 MLOAD PUSH1 0x1 PUSH1 0x1 PUSH1 0x40 SHL SUB SWAP2 DUP3 DUP3 GT RETURNDATASIZE PUSH1 0x24 DUP5 ADD GT OR PUSH2 0x2635 JUMPI DUP2 DUP5 ADD SWAP5 DUP6 MLOAD SWAP4 DUP5 GT PUSH2 0x263D JUMPI RETURNDATASIZE DUP6 ADD ADD PUSH1 0x20 DUP5 DUP8 ADD ADD GT PUSH2 0x2635 JUMPI POP PUSH2 0x2632 SWAP3 SWAP2 ADD PUSH1 0x20 ADD SWAP1 PUSH2 0x21DC JUMP JUMPDEST SWAP1 JUMP JUMPDEST SWAP5 SWAP4 POP POP POP POP JUMP JUMPDEST POP SWAP5 SWAP4 POP POP POP POP JUMP JUMPDEST SWAP2 SWAP1 DUP3 SUB SWAP2 DUP3 GT PUSH2 0x240D JUMPI JUMP JUMPDEST ISZERO PUSH2 0x265A JUMPI JUMP JUMPDEST PUSH1 0x40 MLOAD PUSH3 0x461BCD PUSH1 0xE5 SHL DUP2 MSTORE PUSH1 0x20 PUSH1 0x4 DUP3 ADD MSTORE PUSH1 0x12 PUSH1 0x24 DUP3 ADD MSTORE PUSH18 0x416D6F756E74206D757374206265203E203 PUSH1 0x74 SHL PUSH1 0x44 DUP3 ADD MSTORE PUSH1 0x64 SWAP1 REVERT JUMPDEST SWAP2 SWAP1 DUP3 ADD DUP1 SWAP3 GT PUSH2 0x240D JUMPI JUMP JUMPDEST RETURNDATASIZE ISZERO PUSH2 0x26CC JUMPI RETURNDATASIZE SWAP1 PUSH2 0x26B2 DUP3 PUSH2 0x21FD JUMP JUMPDEST SWAP2 PUSH2 0x26C0 PUSH1 0x40 MLOAD SWAP4 DUP5 PUSH2 0x21DC JUMP JUMPDEST DUP3 MSTORE RETURNDATASIZE PUSH1 0x0 PUSH1 0x20 DUP5 ADD RETURNDATACOPY JUMP JUMPDEST PUSH1 0x60 SWAP1 JUMP JUMPDEST ISZERO PUSH2 0x26D8 JUMPI JUMP JUMPDEST PUSH1 0x40 MLOAD PUSH3 0x461BCD PUSH1 0xE5 SHL DUP2 MSTORE PUSH1 0x20 PUSH1 0x4 DUP3 ADD MSTORE PUSH1 0x15 PUSH1 0x24 DUP3 ADD MSTORE PUSH21 0x115512081DDA5D1A191C985DD85B0819985A5B1959 PUSH1 0x5A SHL PUSH1 0x44 DUP3 ADD MSTORE PUSH1 0x64 SWAP1 REVERT JUMPDEST SWAP2 SWAP1 DUP2 LT ISZERO PUSH2 0x2725 JUMPI PUSH1 0x5 SHL ADD SWAP1 JUMP JUMPDEST PUSH4 0x4E487B71 PUSH1 0xE0 SHL PUSH1 0x0 MSTORE PUSH1 0x32 PUSH1 0x4 MSTORE PUSH1 0x24 PUSH1 0x0 REVERT JUMPDEST CALLDATALOAD PUSH1 0x1 PUSH1 0x1 PUSH1 0xA0 SHL SUB DUP2 AND DUP2 SUB PUSH2 0x1231 JUMPI SWAP1 JUMP JUMPDEST PUSH1 0x1 PUSH1 0x1 PUSH1 0x40 SHL SUB DUP2 GT PUSH2 0x21AB JUMPI PUSH1 0x5 SHL PUSH1 0x20 ADD SWAP1 JUMP JUMPDEST SWAP1 PUSH2 0x2770 DUP3 PUSH2 0x274F JUMP JUMPDEST PUSH2 0x277D PUSH1 0x40 MLOAD SWAP2 DUP3 PUSH2 0x21DC JUMP JUMPDEST DUP3 DUP2 MSTORE DUP1 SWAP3 PUSH2 0x278E PUSH1 0x1F NOT SWAP2 PUSH2 0x274F JUMP JUMPDEST ADD SWAP1 PUSH1 0x20 CALLDATASIZE SWAP2 ADD CALLDATACOPY JUMP JUMPDEST PUSH1 0x2 DUP3 LT ISZERO PUSH2 0x10AA JUMPI MSTORE JUMP JUMPDEST DUP1 MLOAD DUP3 LT ISZERO PUSH2 0x2725 JUMPI PUSH1 0x20 SWAP2 PUSH1 0x5 SHL ADD ADD SWAP1 JUMP JUMPDEST PUSH1 0x1 PUSH1 0x1 PUSH1 0xA0 SHL SUB AND PUSH1 0x0 DUP2 DUP2 MSTORE PUSH1 0x6 PUSH1 0x20 SWAP1 DUP2 MSTORE PUSH1 0x40 DUP1 DUP4 KECCAK256 DUP6 DUP5 MSTORE SWAP1 SWAP2 MSTORE DUP1 DUP3 KECCAK256 DUP1 SLOAD SWAP1 SWAP5 SWAP4 SWAP3 DUP2 ISZERO PUSH2 0x285C JUMPI TIMESTAMP DUP3 GT ISZERO PUSH2 0x2901 JUMPI POP PUSH2 0x27FA TIMESTAMP DUP3 PUSH2 0x2646 JUMP JUMPDEST SWAP1 JUMPDEST DUP2 ISZERO DUP1 DUP1 PUSH2 0x28F4 JUMPI JUMPDEST ISZERO PUSH2 0x2841 JUMPI POP POP POP PUSH1 0x20 PUSH32 0xE16733FC8E48D586FD2BFCD14697DFE3825072515DB23837A3347950B2C19153 SWAP2 DUP6 SLOAD SWAP1 MLOAD SWAP1 DUP2 MSTORE LOG3 PUSH1 0x4 TIMESTAMP SWAP2 ADD SSTORE JUMP JUMPDEST PUSH1 0x3 SLOAD DUP1 DUP5 GT ISZERO SWAP2 DUP3 PUSH2 0x28EB JUMPI JUMPDEST POP DUP2 PUSH2 0x28D3 JUMPI JUMPDEST POP PUSH2 0x2864 JUMPI JUMPDEST POP POP POP POP POP POP JUMP JUMPDEST DUP3 DUP6 DUP6 PUSH32 0x4247EDB612B3CCE7149B703152907629579DD862C731514C126E10F7DDB586C9 DUP4 PUSH1 0x20 SWAP7 PUSH3 0x15180 PUSH32 0xB03B26F6E4BF2A59BD2453BE3310044644599DFFC8DCF0E97D802C5D9C1985E6 SWAP10 MLOAD SWAP2 DUP9 DUP4 MSTORE DIV DUP9 DUP3 ADD MSTORE LOG3 MLOAD SWAP1 DUP2 MSTORE LOG3 PUSH1 0x4 TIMESTAMP SWAP2 ADD SSTORE CODESIZE DUP1 DUP1 DUP1 DUP1 DUP1 PUSH2 0x285C JUMP JUMPDEST SWAP1 POP PUSH2 0x28E4 PUSH1 0x4 DUP9 ADD SLOAD SWAP2 DUP4 PUSH2 0x2646 JUMP JUMPDEST GT CODESIZE PUSH2 0x2856 JUMP JUMPDEST ISZERO SWAP2 POP CODESIZE PUSH2 0x284F JUMP JUMPDEST POP PUSH1 0x4 DUP8 ADD SLOAD DUP3 GT PUSH2 0x2805 JUMP JUMPDEST SWAP1 PUSH2 0x27FC JUMP JUMPDEST PUSH1 0x1 SLOAD SWAP2 PUSH1 0x0 SWAP2 DUP3 JUMPDEST DUP5 DUP2 LT PUSH2 0x2922 JUMPI POP POP POP POP POP PUSH1 0x0 NOT SWAP1 JUMP JUMPDEST DUP1 DUP5 MSTORE PUSH1 0x20 PUSH1 0x5 DUP2 MSTORE PUSH1 0x40 SWAP1 DUP2 DUP7 KECCAK256 PUSH1 0xFF PUSH1 0x4 DUP3 ADD SLOAD AND SWAP3 DUP4 PUSH2 0x295D JUMPI JUMPDEST POP POP POP PUSH2 0x2955 JUMPI PUSH2 0x2950 SWAP1 PUSH2 0x23FE JUMP JUMPDEST PUSH2 0x2910 JUMP JUMPDEST SWAP4 POP POP POP POP SWAP1 JUMP JUMPDEST PUSH1 0x3 SWAP3 SWAP4 POP SWAP1 PUSH2 0x21C PUSH2 0x2975 SWAP3 MLOAD DUP1 SWAP5 DUP2 SWAP4 ADD PUSH2 0x2330 JUMP JUMPDEST DUP2 DUP2 MLOAD SWAP2 ADD KECCAK256 SWAP1 PUSH2 0x2987 CALLDATASIZE DUP7 DUP7 PUSH2 0x2218 JUMP JUMPDEST DUP1 MLOAD SWAP2 ADD KECCAK256 EQ CODESIZE DUP1 DUP1 PUSH2 0x2940 JUMP INVALID LOG2 PUSH5 0x6970667358 0x22 SLT KECCAK256 CALLDATALOAD PUSH6 0xBF8E726904DC 0xC3 DUP7 0xB9 EXTCODECOPY PUSH30 0xC6BF913F87A87E74ED941462B6566F6806487064736F6C63430008140033 "
        },
        "methodIdentifiers": {
          "checkExpirationWarnings(address[],uint256[])": "a93f8598",
          "checkSubscriptionStatus(address,uint256)": "c74df34f",
          "createPlan(string,uint256,uint256,uint256)": "c9e5d679",
          "depositETH()": "f6326fb3",
          "disableAutoRenewal(uint256)": "296362fe",
          "enableAutoRenewal(uint256,uint8)": "d6c72cec",
          "ethBalances(address)": "3cfba0e3",
          "executeAutoRenewal(address,uint256,(uint256,uint256,uint256,string,bool),uint8)": "498556ed",
          "findPlanByName(string)": "83917136",
          "getActivePlans()": "43fe832c",
          "getETHBalance()": "6e947298",
          "getPlan(uint256)": "26cd5274",
          "getSubscription(address,uint256)": "3ae9a18e",
          "getUSDTBalance()": "9785fac8",
          "getUsersNeedingRenewal(address[],uint256[])": "db2bf1e2",
          "isActive(address,uint256)": "d266e83b",
          "notificationWindow()": "2bf8335c",
          "owner()": "8da5cb5b",
          "planCounter()": "a36a38ed",
          "plans(uint256)": "b1620616",
          "processAutoRenewal(address,uint256)": "8a0323ba",
          "renewWithETH(uint256)": "fbc67aab",
          "renewWithUSDT(uint256)": "df022518",
          "setNotificationWindow(uint256)": "e3a6d26d",
          "subscribeWithETH(uint256)": "92112162",
          "subscribeWithUSDT(uint256)": "abf5498c",
          "subscriptions(address,uint256)": "623da3d1",
          "togglePlan(uint256)": "86ed56fa",
          "unsubscribe(uint256)": "ad0b27fb",
          "updateUSDTToken(address)": "f3612f52",
          "usdtToken()": "a98ad46c",
          "withdrawETH()": "e086e5ec",
          "withdrawETHBalance(uint256)": "176c5106",
          "withdrawUSDT()": "362e496b"
        }
      }
    }
  }
}