{
  "_format": "hh-sol-artifact-1",
  "contractName": "MockUSDT",
  "sourceName": "contracts/USDT.sol",
  "abi": [
    {
      "inputs": [
        {
          "internalType": "string",
          "name": "name",
          "type": "string"
        },
        {
          "internalType": "string",
          "name": "symbol",
          "type": "string"
        },
        {
          "internalType": "uint8",
          "name": "decimals_",
          "type": "uint8"
        }
      ],
      "stateMutability": "nonpayable",
      "type": "constructor"
    },
    {
      "anonymous": false,
      "inputs": [
        {
          "indexed": true,
          "internalType": "address",
          "name": "owner",
          "type": "address"
        },
        {
          "indexed": true,
          "internalType": "address",
          "name": "spender",
          "type": "address"
        },
        {
          "indexed": false,
          "internalType": "uint256",
          "name": "value",
          "type": "uint256"
        }
      ],
      "name": "Approval",
      "type": "event"
    },
    {
      "anonymous": false,
      "inputs": [
        {
          "indexed": true,
          "internalType": "address",
          "name": "user",
          "type": "address"
        },
        {
          "indexed": false,
          "internalType": "uint256",
          "name": "amount",
          "type": "uint256"
        }
      ],
      "name": "FaucetUsed",
      "type": "event"
    },
    {
      "anonymous": false,
      "inputs": [
        {
          "indexed": true,
          "internalType": "address",
          "name": "previousOwner",
          "type": "address"
        },
        {
          "indexed": true,
          "internalType": "address",
          "name": "newOwner",
          "type": "address"
        }
      ],
      "name": "OwnershipTransferred",
      "type": "event"
    },
    {
      "anonymous": false,
      "inputs": [
        {
          "indexed": true,
          "internalType": "address",
          "name": "from",
          "type": "address"
        },
        {
          "indexed": true,
          "internalType": "address",
          "name": "to",
          "type": "address"
        },
        {
          "indexed": false,
          "internalType": "uint256",
          "name": "value",
          "type": "uint256"
        }
      ],
      "name": "Transfer",
      "type": "event"
    },
    {
      "inputs": [
        {
          "internalType": "address",
          "name": "owner",
          "type": "address"
        },
        {
          "internalType": "address",
          "name": "spender",
          "type": "address"
        }
      ],
      "name": "allowance",
      "outputs": [
        {
          "internalType": "uint256",
          "name": "",
          "type": "uint256"
        }
      ],
      "stateMutability": "view",
      "type": "function"
    },
    {
      "inputs": [
        {
          "internalType": "address",
          "name": "spender",
          "type": "address"
        },
        {
          "internalType": "uint256",
          "name": "amount",
          "type": "uint256"
        }
      ],
      "name": "approve",
      "outputs": [
        {
          "internalType": "bool",
          "name": "",
          "type": "bool"
        }
      ],
      "stateMutability": "nonpayable",
      "type": "function"
    },
    {
      "inputs": [
        {
          "internalType": "address",
          "name": "account",
          "type": "address"
        }
      ],
      "name": "balanceOf",
      "outputs": [
        {
          "internalType": "uint256",
          "name": "",
          "type": "uint256"
        }
      ],
      "stateMutability": "view",
      "type": "function"
    },
    {
      "inputs": [
        {
          "internalType": "uint256",
          "name": "amount",
          "type": "uint256"
        }
      ],
      "name": "burn",
      "outputs": [],
      "stateMutability": "nonpayable",
      "type": "function"
    },
    {
      "inputs": [
        {
          "internalType": "address",
          "name": "user",
          "type": "address"
        }
      ],
      "name": "canUseFaucet",
      "outputs": [
        {
          "internalType": "bool",
          "name": "",
          "type": "bool"
        }
      ],
      "stateMutability": "view",
      "type": "function"
    },
    {
      "inputs": [],
      "name": "decimals",
      "outputs": [
        {
          "internalType": "uint8",
          "name": "",
          "type": "uint8"
        }
      ],
      "stateMutability": "view",
      "type": "function"
    },
    {
      "inputs": [
        {
          "internalType": "address",
          "name": "spender",
          "type": "address"
        },
        {
          "internalType": "uint256",
          "name": "subtractedValue",
          "type": "uint256"
        }
      ],
      "name": "decreaseAllowance",
      "outputs": [
        {
          "internalType": "bool",
          "name": "",
          "type": "bool"
        }
      ],
      "stateMutability": "nonpayable",
      "type": "function"
    },
    {
      "inputs": [],
      "name": "faucet",
      "outputs": [],
      "stateMutability": "nonpayable",
      "type": "function"
    },
    {
      "inputs": [],
      "name": "faucetAmount",
      "outputs": [
        {
          "internalType": "uint256",
          "name": "",
          "type": "uint256"
        }
      ],
      "stateMutability": "view",
      "type": "function"
    },
    {
      "inputs": [
        {
          "internalType": "address",
          "name": "user",
          "type": "address"
        }
      ],
      "name": "getRemainingFaucetAmount",
      "outputs": [
        {
          "internalType": "uint256",
          "name": "",
          "type": "uint256"
        }
      ],
      "stateMutability": "view",
      "type": "function"
    },
    {
      "inputs": [
        {
          "internalType": "address",
          "name": "spender",
          "type": "address"
        },
        {
          "internalType": "uint256",
          "name": "addedValue",
          "type": "uint256"
        }
      ],
      "name": "increaseAllowance",
      "outputs": [
        {
          "internalType": "bool",
          "name": "",
          "type": "bool"
        }
      ],
      "stateMutability": "nonpayable",
      "type": "function"
    },
    {
      "inputs": [],
      "name": "maxBalance",
      "outputs": [
        {
          "internalType": "uint256",
          "name": "",
          "type": "uint256"
        }
      ],
      "stateMutability": "view",
      "type": "function"
    },
    {
      "inputs": [
        {
          "internalType": "address",
          "name": "to",
          "type": "address"
        },
        {
          "internalType": "uint256",
          "name": "amount",
          "type": "uint256"
        }
      ],
      "name": "mint",
      "outputs": [],
      "stateMutability": "nonpayable",
      "type": "function"
    },
    {
      "inputs": [],
      "name": "name",
      "outputs": [
        {
          "internalType": "string",
          "name": "",
          "type": "string"
        }
      ],
      "stateMutability": "view",
      "type": "function"
    },
    {
      "inputs": [],
      "name": "owner",
      "outputs": [
        {
          "internalType": "address",
          "name": "",
          "type": "address"
        }
      ],
      "stateMutability": "view",
      "type": "function"
    },
    {
      "inputs": [],
      "name": "renounceOwnership",
      "outputs": [],
      "stateMutability": "nonpayable",
      "type": "function"
    },
    {
      "inputs": [],
      "name": "symbol",
      "outputs": [
        {
          "internalType": "string",
          "name": "",
          "type": "string"
        }
      ],
      "stateMutability": "view",
      "type": "function"
    },
    {
      "inputs": [],
      "name": "totalSupply",
      "outputs": [
        {
          "internalType": "uint256",
          "name": "",
          "type": "uint256"
        }
      ],
      "stateMutability": "view",
      "type": "function"
    },
    {
      "inputs": [
        {
          "internalType": "address",
          "name": "to",
          "type": "address"
        },
        {
          "internalType": "uint256",
          "name": "amount",
          "type": "uint256"
        }
      ],
      "name": "transfer",
      "outputs": [
        {
          "internalType": "bool",
          "name": "",
          "type": "bool"
        }
      ],
      "stateMutability": "nonpayable",
      "type": "function"
    },
    {
      "inputs": [
        {
          "internalType": "address",
          "name": "from",
          "type": "address"
        },
        {
          "internalType": "address",
          "name": "to",
          "type": "address"
        },
        {
          "internalType": "uint256",
          "name": "amount",
          "type": "uint256"
        }
      ],
      "name": "transferFrom",
      "outputs": [
        {
          "internalType": "bool",
          "name": "",
          "type": "bool"
        }
      ],
      "stateMutability": "nonpayable",
      "type": "function"
    },
    {
      "inputs": [
        {
          "internalType": "address",
          "name": "newOwner",
          "type": "address"
        }
      ],
      "name": "transferOwnership",
      "outputs": [],
      "stateMutability": "nonpayable",
      "type": "function"
    },
    {
      "inputs": [
        {
          "internalType": "uint256",
          "name": "_faucetAmount",
          "type": "uint256"
        },
        {
          "internalType": "uint256",
          "name": "_maxBalance",
          "type": "uint256"
        }
      ],
      "name": "updateFaucetSettings",
      "outputs": [],
      "stateMutability": "nonpayable",
      "type": "function"
    }
  ],
  "bytecode": "0x604060808152346200046e5762001429803803806200001e8162000473565b92833981016060828203126200046e5781516001600160401b0392908381116200046e57826200005091830162000499565b602092838301518581116200046e5786916200006e91850162000499565b9201519060ff8216908183036200046e578051958087116200036e576003805497600193848a811c9a16801562000463575b898b10146200044d578190601f9a8b8111620003f7575b5089908b8311600114620003905760009262000384575b505060001982841b1c191690841b1781555b85519182116200036e5760049586548481811c9116801562000363575b898210146200034e5789811162000303575b50879089841160011462000298579383949184926000956200028c575b50501b92600019911b1c19161783555b600554865192336001600160a01b0383167f8be0079c531659141344cd1fd0a4f28419497f9722a3daafe3b4186f6b6457e0600080a3603260065560646007556001600160a81b03199091163360ff60a01b19161760a09190911b60ff60a01b1617600555604d81116200027757600a0a93620f42409480860295860403620002775733156200023a575050600254908382018092116200022557506000917fddf252ad1be2c89b69c2b068fc378daa952ba7f163c4a11628f55a4df523b3ef9160025533835282815284832084815401905584519384523393a351610f1d90816200050c8239f35b601190634e487b7160e01b6000525260246000fd5b8360649362461bcd60e51b845283015260248201527f45524332303a206d696e7420746f20746865207a65726f2061646472657373006044820152fd5b601183634e487b7160e01b6000525260246000fd5b0151935038806200012c565b9190601f1984169288600052848a6000209460005b8c89838310620002eb5750505010620002d0575b50505050811b0183556200013c565b01519060f884600019921b161c1916905538808080620002c1565b868601518955909701969485019488935001620002ad565b87600052886000208a80860160051c8201928b871062000344575b0160051c019085905b828110620003375750506200010f565b6000815501859062000327565b925081926200031e565b602288634e487b7160e01b6000525260246000fd5b90607f1690620000fd565b634e487b7160e01b600052604160045260246000fd5b015190503880620000ce565b90869350601f19831691856000528b6000209260005b8d828210620003e05750508411620003c7575b505050811b018155620000e0565b015160001983861b60f8161c19169055388080620003b9565b8385015186558a97909501949384019301620003a6565b90915083600052896000208b80850160051c8201928c861062000443575b918891869594930160051c01915b82811062000433575050620000b7565b6000815585945088910162000423565b9250819262000415565b634e487b7160e01b600052602260045260246000fd5b99607f1699620000a0565b600080fd5b6040519190601f01601f191682016001600160401b038111838210176200036e57604052565b919080601f840112156200046e5782516001600160401b0381116200036e57602090620004cf601f8201601f1916830162000473565b928184528282870101116200046e5760005b818110620004f757508260009394955001015290565b8581018301518482018401528201620004e156fe6080604081815260048036101561001557600080fd5b600092833560e01c90816306fdde031461096857508063095ea7b31461093e57806318160ddd1461091f57806323b872dd14610855578063313ce5671461083057806339509351146107e057806340c10f19146107b057806342966c681461069e578063706e1af01461067857806370a0823114610641578063715018a6146105e457806373ad468a146105c5578063780768fc146105765780638da5cb5b1461054d57806395d89b411461042d5780639c2814301461040e578063a457c2d714610367578063a9059cbb14610336578063d6a61e3114610309578063dd62ed3e146102bc578063de5f72fd146101e35763f2fde38b1461011557600080fd5b346101df5760203660031901126101df5761012e610aa6565b90610137610ad7565b6001600160a01b0391821692831561018d575050600554826bffffffffffffffffffffffff60a01b821617600555167f8be0079c531659141344cd1fd0a4f28419497f9722a3daafe3b4186f6b6457e08380a380f35b906020608492519162461bcd60e51b8352820152602660248201527f4f776e61626c653a206e6577206f776e657220697320746865207a65726f206160448201526564647265737360d01b6064820152fd5b8280fd5b50346101df57826003193601126101df573383528260205281832054906007549161022060ff60055460a01c169361021a85610e65565b90610e76565b111561026f57506102379061021a60065491610e65565b906102428233610dc2565b519081527fc471df7d13ab46c73ec6eb2da0f35f84077f20d50243ba09a714b82cffc54de960203392a280f35b608490602084519162461bcd60e51b8352820152602160248201527f596f7520616c7265616479206861766520656e6f7567682074657374205553446044820152601560fa1b6064820152fd5b505034610305578060031936011261030557806020926102da610aa6565b6102e2610ac1565b6001600160a01b0391821683526001865283832091168252845220549051908152f35b5080fd5b5050346103055760203660031901126103055760209061032f61032a610aa6565b610e89565b9051908152f35b505034610305578060031936011261030557602090610360610356610aa6565b6024359033610b52565b5160018152f35b50823461040b578260031936011261040b57610381610aa6565b918360243592338152600160205281812060018060a01b03861682526020522054908282106103ba576020856103608585038733610cc0565b608490602086519162461bcd60e51b8352820152602560248201527f45524332303a2064656372656173656420616c6c6f77616e63652062656c6f77604482015264207a65726f60d81b6064820152fd5b80fd5b5050346103055781600319360112610305576020906006549051908152f35b50919034610305578160031936011261030557805190828454600181811c90808316928315610543575b60209384841081146105305783885290811561051457506001146104bf575b505050829003601f01601f191682019267ffffffffffffffff8411838510176104ac57508291826104a8925282610a5d565b0390f35b634e487b7160e01b815260418552602490fd5b8787529192508591837f8a35acfbc15ff81a39ae7d344fd709f28e8600b4aa8c65c6b64bfe7fe36bd19b5b8385106105005750505050830101388080610476565b8054888601830152930192849082016104ea565b60ff1916878501525050151560051b8401019050388080610476565b634e487b7160e01b895260228a52602489fd5b91607f1691610457565b50503461030557816003193601126103055760055490516001600160a01b039091168152602090f35b5050346103055760203660031901126103055760209181906001600160a01b0361059e610aa6565b16815280845220546105bd60075461021a60ff60055460a01c16610e65565b119051908152f35b5050346103055781600319360112610305576020906007549051908152f35b833461040b578060031936011261040b576105fd610ad7565b600580546001600160a01b0319811690915581906001600160a01b03167f8be0079c531659141344cd1fd0a4f28419497f9722a3daafe3b4186f6b6457e08280a380f35b5050346103055760203660031901126103055760209181906001600160a01b03610669610aa6565b16815280845220549051908152f35b5090346101df5736600319011261030557610691610ad7565b3560065560243560075580f35b5090346101df57602090816003193601126107ac5782359233156107615733855284835281852054908482106107135750917fddf252ad1be2c89b69c2b068fc378daa952ba7f163c4a11628f55a4df523b3ef918486959433875286845203818620558360025403600255519283523392a380f35b825162461bcd60e51b8152908101849052602260248201527f45524332303a206275726e20616d6f756e7420657863656564732062616c616e604482015261636560f01b6064820152608490fd5b82608492519162461bcd60e51b8352820152602160248201527f45524332303a206275726e2066726f6d20746865207a65726f206164647265736044820152607360f81b6064820152fd5b8380fd5b5050346103055736600319011261040b576107dd6107cc610aa6565b6107d4610ad7565b60243590610dc2565b80f35b505034610305578060031936011261030557610360602092610829610803610aa6565b338352600186528483206001600160a01b03821684528652918490205460243590610b2f565b9033610cc0565b50503461030557816003193601126103055760209060ff60055460a01c169051908152f35b5082903461030557606036600319011261030557610871610aa6565b610879610ac1565b91846044359460018060a01b0384168152600160205281812033825260205220549060001982036108b3575b602086610360878787610b52565b8482106108dc57509183916108d16020969561036095033383610cc0565b9193948193506108a5565b606490602087519162461bcd60e51b8352820152601d60248201527f45524332303a20696e73756666696369656e7420616c6c6f77616e63650000006044820152fd5b5050346103055781600319360112610305576020906002549051908152f35b50503461030557806003193601126103055760209061036061095e610aa6565b6024359033610cc0565b84915083346101df57826003193601126101df5782600354600181811c90808316928315610a53575b602093848410811461053057838852908115610a3757506001146109e157505050829003601f01601f191682019267ffffffffffffffff8411838510176104ac57508291826104a8925282610a5d565b600387529192508591837fc2575a0e9e593c00f959f8c92f12db2869c3395a3b0502d05e2516446f71f85b5b838510610a235750505050830101858080610476565b805488860183015293019284908201610a0d565b60ff1916878501525050151560051b8401019050858080610476565b91607f1691610991565b6020808252825181830181905290939260005b828110610a9257505060409293506000838284010152601f8019910116010190565b818101860151848201604001528501610a70565b600435906001600160a01b0382168203610abc57565b600080fd5b602435906001600160a01b0382168203610abc57565b6005546001600160a01b03163303610aeb57565b606460405162461bcd60e51b815260206004820152602060248201527f4f776e61626c653a2063616c6c6572206973206e6f7420746865206f776e65726044820152fd5b91908201809211610b3c57565b634e487b7160e01b600052601160045260246000fd5b6001600160a01b03908116918215610c6d5716918215610c1c57600082815280602052604081205491808310610bc857604082827fddf252ad1be2c89b69c2b068fc378daa952ba7f163c4a11628f55a4df523b3ef958760209652828652038282205586815220818154019055604051908152a3565b60405162461bcd60e51b815260206004820152602660248201527f45524332303a207472616e7366657220616d6f756e7420657863656564732062604482015265616c616e636560d01b6064820152608490fd5b60405162461bcd60e51b815260206004820152602360248201527f45524332303a207472616e7366657220746f20746865207a65726f206164647260448201526265737360e81b6064820152608490fd5b60405162461bcd60e51b815260206004820152602560248201527f45524332303a207472616e736665722066726f6d20746865207a65726f206164604482015264647265737360d81b6064820152608490fd5b6001600160a01b03908116918215610d715716918215610d215760207f8c5be1e5ebec7d5bd14f71427d1e84f3dd0314c0f7b2291e5b200ac8c7c3b925918360005260018252604060002085600052825280604060002055604051908152a3565b60405162461bcd60e51b815260206004820152602260248201527f45524332303a20617070726f766520746f20746865207a65726f206164647265604482015261737360f01b6064820152608490fd5b60405162461bcd60e51b8152602060048201526024808201527f45524332303a20617070726f76652066726f6d20746865207a65726f206164646044820152637265737360e01b6064820152608490fd5b6001600160a01b0316908115610e20577fddf252ad1be2c89b69c2b068fc378daa952ba7f163c4a11628f55a4df523b3ef602082610e04600094600254610b2f565b60025584845283825260408420818154019055604051908152a3565b60405162461bcd60e51b815260206004820152601f60248201527f45524332303a206d696e7420746f20746865207a65726f2061646472657373006044820152606490fd5b60ff16604d8111610b3c57600a0a90565b81810292918115918404141715610b3c57565b60009060018060a01b0316815280602052604081205490610eb760075461021a60ff60055460a01c16610e65565b9182811015610ee1578203918211610ecd575090565b634e487b7160e01b81526011600452602490fd5b5090509056fea264697066735822122076a2ae1b79e04b71eb3c05888c9b1ce0a272db6cef13cb304becfb2484b2273164736f6c63430008140033",
  "linkReferences": {},
  "deployedLinkReferences": {}
}